{
  "_format": "hh-sol-artifact-1",
  "contractName": "ReducedManager",
  "sourceName": "contracts/ReducedManager.sol",
  "abi": [
    {
      "inputs": [
        {
          "internalType": "address",
          "name": "_safeToken",
          "type": "address"
        },
        {
          "internalType": "address",
          "name": "_insurancePool",
          "type": "address"
        }
      ],
      "stateMutability": "nonpayable",
      "type": "constructor"
    },
    {
      "inputs": [],
      "name": "ClaimDoesNotExist",
      "type": "error"
    },
    {
      "inputs": [],
      "name": "ClaimPayFailed",
      "type": "error"
    },
    {
      "inputs": [],
      "name": "PremiumPaymentFailed",
      "type": "error"
    },
    {
      "anonymous": false,
      "inputs": [
        {
          "indexed": true,
          "internalType": "uint256",
          "name": "policyId",
          "type": "uint256"
        },
        {
          "indexed": false,
          "internalType": "address",
          "name": "buyer",
          "type": "address"
        },
        {
          "indexed": false,
          "internalType": "string",
          "name": "description",
          "type": "string"
        }
      ],
      "name": "ClaimCreated",
      "type": "event"
    },
    {
      "anonymous": false,
      "inputs": [
        {
          "indexed": true,
          "internalType": "uint256",
          "name": "policyId",
          "type": "uint256"
        },
        {
          "indexed": false,
          "internalType": "address",
          "name": "owner",
          "type": "address"
        },
        {
          "indexed": false,
          "internalType": "uint256",
          "name": "claimAmount",
          "type": "uint256"
        }
      ],
      "name": "PolicyClaimed",
      "type": "event"
    },
    {
      "anonymous": false,
      "inputs": [
        {
          "indexed": true,
          "internalType": "uint256",
          "name": "policyId",
          "type": "uint256"
        },
        {
          "indexed": false,
          "internalType": "address",
          "name": "owner",
          "type": "address"
        },
        {
          "indexed": false,
          "internalType": "uint256",
          "name": "coverageAmount",
          "type": "uint256"
        },
        {
          "indexed": false,
          "internalType": "uint256",
          "name": "premium",
          "type": "uint256"
        },
        {
          "indexed": false,
          "internalType": "uint256",
          "name": "expirationDate",
          "type": "uint256"
        }
      ],
      "name": "PolicyCreated",
      "type": "event"
    },
    {
      "anonymous": false,
      "inputs": [
        {
          "indexed": true,
          "internalType": "uint256",
          "name": "policyId",
          "type": "uint256"
        },
        {
          "indexed": false,
          "internalType": "address",
          "name": "buyer",
          "type": "address"
        }
      ],
      "name": "PolicyPurchased",
      "type": "event"
    },
    {
      "anonymous": false,
      "inputs": [
        {
          "indexed": true,
          "internalType": "uint256",
          "name": "policyId",
          "type": "uint256"
        },
        {
          "indexed": false,
          "internalType": "address",
          "name": "buyer",
          "type": "address"
        },
        {
          "indexed": false,
          "internalType": "uint256",
          "name": "amountPaid",
          "type": "uint256"
        }
      ],
      "name": "PremiumPaid",
      "type": "event"
    },
    {
      "inputs": [
        {
          "internalType": "address",
          "name": "",
          "type": "address"
        },
        {
          "internalType": "uint256",
          "name": "",
          "type": "uint256"
        }
      ],
      "name": "addressToPolicy",
      "outputs": [
        {
          "internalType": "uint256",
          "name": "",
          "type": "uint256"
        }
      ],
      "stateMutability": "view",
      "type": "function"
    },
    {
      "inputs": [
        {
          "internalType": "uint256",
          "name": "policyId",
          "type": "uint256"
        },
        {
          "internalType": "string",
          "name": "_documentIPFSHash",
          "type": "string"
        },
        {
          "internalType": "string",
          "name": "_description",
          "type": "string"
        }
      ],
      "name": "claimPolicy",
      "outputs": [],
      "stateMutability": "nonpayable",
      "type": "function"
    },
    {
      "inputs": [
        {
          "internalType": "uint256",
          "name": "",
          "type": "uint256"
        }
      ],
      "name": "claims",
      "outputs": [
        {
          "internalType": "uint256",
          "name": "claimId",
          "type": "uint256"
        },
        {
          "internalType": "uint256",
          "name": "policyId",
          "type": "uint256"
        },
        {
          "internalType": "bool",
          "name": "isVerified",
          "type": "bool"
        },
        {
          "internalType": "bool",
          "name": "isPaid",
          "type": "bool"
        },
        {
          "internalType": "address",
          "name": "buyerAddress",
          "type": "address"
        },
        {
          "internalType": "string",
          "name": "documentIPFSHash",
          "type": "string"
        },
        {
          "internalType": "string",
          "name": "description",
          "type": "string"
        }
      ],
      "stateMutability": "view",
      "type": "function"
    },
    {
      "inputs": [
        {
          "internalType": "string",
          "name": "_title",
          "type": "string"
        },
        {
          "internalType": "uint256",
          "name": "coverageAmount",
          "type": "uint256"
        },
        {
          "internalType": "string",
          "name": "_description",
          "type": "string"
        },
        {
          "internalType": "uint256",
          "name": "expirationDate",
          "type": "uint256"
        },
        {
          "internalType": "string",
          "name": "coverageType",
          "type": "string"
        }
      ],
      "name": "createPolicy",
      "outputs": [
        {
          "internalType": "uint256",
          "name": "",
          "type": "uint256"
        }
      ],
      "stateMutability": "nonpayable",
      "type": "function"
    },
    {
      "inputs": [],
      "name": "getTotallengthOfPolicies",
      "outputs": [
        {
          "internalType": "uint256",
          "name": "",
          "type": "uint256"
        }
      ],
      "stateMutability": "view",
      "type": "function"
    },
    {
      "inputs": [],
      "name": "insurancePool",
      "outputs": [
        {
          "internalType": "contract IInsurancePool",
          "name": "",
          "type": "address"
        }
      ],
      "stateMutability": "view",
      "type": "function"
    },
    {
      "inputs": [],
      "name": "nextClaimId",
      "outputs": [
        {
          "internalType": "uint256",
          "name": "",
          "type": "uint256"
        }
      ],
      "stateMutability": "view",
      "type": "function"
    },
    {
      "inputs": [],
      "name": "nextPolicyId",
      "outputs": [
        {
          "internalType": "uint256",
          "name": "",
          "type": "uint256"
        }
      ],
      "stateMutability": "view",
      "type": "function"
    },
    {
      "inputs": [
        {
          "internalType": "uint256",
          "name": "",
          "type": "uint256"
        }
      ],
      "name": "policies",
      "outputs": [
        {
          "internalType": "uint256",
          "name": "id",
          "type": "uint256"
        },
        {
          "internalType": "address",
          "name": "owner",
          "type": "address"
        },
        {
          "internalType": "string",
          "name": "title",
          "type": "string"
        },
        {
          "internalType": "string",
          "name": "description",
          "type": "string"
        },
        {
          "internalType": "uint256",
          "name": "coverageAmount",
          "type": "uint256"
        },
        {
          "internalType": "uint256",
          "name": "premium",
          "type": "uint256"
        },
        {
          "internalType": "uint256",
          "name": "expirationDate",
          "type": "uint256"
        },
        {
          "internalType": "bool",
          "name": "isActive",
          "type": "bool"
        },
        {
          "internalType": "string",
          "name": "coverageType",
          "type": "string"
        },
        {
          "internalType": "uint256",
          "name": "nextPremiumDate",
          "type": "uint256"
        }
      ],
      "stateMutability": "view",
      "type": "function"
    },
    {
      "inputs": [
        {
          "internalType": "uint256",
          "name": "policyId",
          "type": "uint256"
        }
      ],
      "name": "purchasePolicy",
      "outputs": [],
      "stateMutability": "payable",
      "type": "function"
    },
    {
      "inputs": [],
      "name": "safeToken",
      "outputs": [
        {
          "internalType": "contract IToken",
          "name": "",
          "type": "address"
        }
      ],
      "stateMutability": "view",
      "type": "function"
    },
    {
      "inputs": [
        {
          "internalType": "uint256",
          "name": "claimId",
          "type": "uint256"
        }
      ],
      "name": "verifyClaim",
      "outputs": [],
      "stateMutability": "nonpayable",
      "type": "function"
    }
  ],
  "bytecode": "0x60c06040523480156200001157600080fd5b5060405162001dc638038062001dc6833981810160405281019062000037919062000111565b8173ffffffffffffffffffffffffffffffffffffffff1660808173ffffffffffffffffffffffffffffffffffffffff16815250508073ffffffffffffffffffffffffffffffffffffffff1660a08173ffffffffffffffffffffffffffffffffffffffff1681525050505062000158565b600080fd5b600073ffffffffffffffffffffffffffffffffffffffff82169050919050565b6000620000d982620000ac565b9050919050565b620000eb81620000cc565b8114620000f757600080fd5b50565b6000815190506200010b81620000e0565b92915050565b600080604083850312156200012b576200012a620000a7565b5b60006200013b85828601620000fa565b92505060206200014e85828601620000fa565b9150509250929050565b60805160a051611c2c6200019a6000396000818161038e0152818161086e01528181610b910152610cf60152600081816102f601526103510152611c2c6000f3fe6080604052600436106100a75760003560e01c8063bb1e110d11610064578063bb1e110d146101d8578063beac7cc414610215578063c0d7e2b61461023e578063c1260c9a14610267578063cad0b8db14610283578063d3e89483146102ae576100a7565b80634b3fd05a146100ac5780636ba357e5146100d7578063a0021cf114610114578063a888c2cd1461013f578063ab2adc0014610182578063acd0b57d146101ad575b600080fd5b3480156100b857600080fd5b506100c16102f4565b6040516100ce91906110c1565b60405180910390f35b3480156100e357600080fd5b506100fe60048036038101906100f99190611181565b610318565b60405161010b919061126c565b60405180910390f35b34801561012057600080fd5b506101296106da565b604051610136919061126c565b60405180910390f35b34801561014b57600080fd5b5061016660048036038101906101619190611287565b6106e0565b6040516101799796959493929190611380565b60405180910390f35b34801561018e57600080fd5b5061019761086c565b6040516101a4919061141e565b60405180910390f35b3480156101b957600080fd5b506101c2610890565b6040516101cf919061126c565b60405180910390f35b3480156101e457600080fd5b506101ff60048036038101906101fa9190611465565b6108df565b60405161020c919061126c565b60405180910390f35b34801561022157600080fd5b5061023c600480360381019061023791906114a5565b610910565b005b34801561024a57600080fd5b5061026560048036038101906102609190611287565b610b23565b005b610281600480360381019061027c9190611287565b610cf4565b005b34801561028f57600080fd5b50610298610e23565b6040516102a5919061126c565b60405180910390f35b3480156102ba57600080fd5b506102d560048036038101906102d09190611287565b610e29565b6040516102eb9a9998979695949392919061153a565b60405180910390f35b7f000000000000000000000000000000000000000000000000000000000000000081565b60008063bbf81e00428661032c919061161a565b60028a610339919061164e565b610343919061164e565b61034d91906116bf565b90507f000000000000000000000000000000000000000000000000000000000000000073ffffffffffffffffffffffffffffffffffffffff166323b872dd337f0000000000000000000000000000000000000000000000000000000000000000846040518463ffffffff1660e01b81526004016103cc939291906116f0565b6020604051808303816000875af11580156103eb573d6000803e3d6000fd5b505050506040513d601f19601f8201168201806040525081019061040f9190611753565b610445576040517f311ef93600000000000000000000000000000000000000000000000000000000815260040160405180910390fd5b60006003600081548092919061045a90611780565b9190505590506040518061014001604052808281526020013373ffffffffffffffffffffffffffffffffffffffff1681526020018c8c8080601f016020809104026020016040519081016040528093929190818152602001838380828437600081840152601f19601f82011690508083019250505050505050815260200189898080601f016020809104026020016040519081016040528093929190818152602001838380828437600081840152601f19601f8201169050808301925050505050505081526020018a815260200183815260200187815260200160011515815260200186868080601f016020809104026020016040519081016040528093929190818152602001838380828437600081840152601f19601f82011690508083019250505050505050815260200162f7da004261059691906117c8565b8152506000808381526020019081526020016000206000820151816000015560208201518160010160006101000a81548173ffffffffffffffffffffffffffffffffffffffff021916908373ffffffffffffffffffffffffffffffffffffffff16021790555060408201518160020190816106119190611a2d565b5060608201518160030190816106279190611a2d565b506080820151816004015560a0820151816005015560c0820151816006015560e08201518160070160006101000a81548160ff02191690831515021790555061010082015181600801908161067c9190611a2d565b506101208201518160090155905050807fdd4dcb2ef94f82921d5c77e9cf4e5c8dd423fb1de1310a243115b95316f25777338b858a6040516106c19493929190611aff565b60405180910390a2809250505098975050505050505050565b60045481565b60016020528060005260406000206000915090508060000154908060010154908060020160009054906101000a900460ff16908060020160019054906101000a900460ff16908060020160029054906101000a900473ffffffffffffffffffffffffffffffffffffffff169080600301805461075b9061185a565b80601f01602080910402602001604051908101604052809291908181526020018280546107879061185a565b80156107d45780601f106107a9576101008083540402835291602001916107d4565b820191906000526020600020905b8154815290600101906020018083116107b757829003601f168201915b5050505050908060040180546107e99061185a565b80601f01602080910402602001604051908101604052809291908181526020018280546108159061185a565b80156108625780601f1061083757610100808354040283529160200191610862565b820191906000526020600020905b81548152906001019060200180831161084557829003601f168201915b5050505050905087565b7f000000000000000000000000000000000000000000000000000000000000000081565b600080600260003373ffffffffffffffffffffffffffffffffffffffff1673ffffffffffffffffffffffffffffffffffffffff1681526020019081526020016000208054905090508091505090565b600260205281600052604060002081815481106108fb57600080fd5b90600052602060002001600091509150505481565b60006004600081548092919061092590611780565b9190505590506040518060e001604052808281526020018781526020016000151581526020016000151581526020013373ffffffffffffffffffffffffffffffffffffffff16815260200186868080601f016020809104026020016040519081016040528093929190818152602001838380828437600081840152601f19601f82011690508083019250505050505050815260200184848080601f016020809104026020016040519081016040528093929190818152602001838380828437600081840152601f19601f8201169050808301925050505050505081525060016000838152602001908152602001600020600082015181600001556020820151816001015560408201518160020160006101000a81548160ff02191690831515021790555060608201518160020160016101000a81548160ff02191690831515021790555060808201518160020160026101000a81548173ffffffffffffffffffffffffffffffffffffffff021916908373ffffffffffffffffffffffffffffffffffffffff16021790555060a0820151816003019081610ac59190611a2d565b5060c0820151816004019081610adb9190611a2d565b50905050857f49df2fa74fcb74a57b6ade05a5b2b557c008ae98b667f70273671790d82ca1a2338585604051610b1393929190611b80565b60405180910390a2505050505050565b6004548110610b5e576040517fa019981800000000000000000000000000000000000000000000000000000000815260040160405180910390fd5b600060016000838152602001908152602001600020905060008060008360010154815260200190815260200160002090507f000000000000000000000000000000000000000000000000000000000000000073ffffffffffffffffffffffffffffffffffffffff166350802e3f8360020160029054906101000a900473ffffffffffffffffffffffffffffffffffffffff1683600401546040518363ffffffff1660e01b8152600401610c12929190611bb2565b600060405180830381600087803b158015610c2c57600080fd5b505af1925050508015610c3d575060015b610c73576040517fb170dbe100000000000000000000000000000000000000000000000000000000815260040160405180910390fd5b60018260020160006101000a81548160ff02191690831515021790555060018260020160016101000a81548160ff02191690831515021790555081600101547f5f2564c1ad353e58b81e7bd6cd0e6b1a3f52f46ab4c59c2cadfbaacc4b2e5716338360040154604051610ce7929190611bb2565b60405180910390a2505050565b7f000000000000000000000000000000000000000000000000000000000000000073ffffffffffffffffffffffffffffffffffffffff1663d5a867b73433346040518463ffffffff1660e01b8152600401610d50929190611bb2565b6000604051808303818588803b158015610d6957600080fd5b505af1158015610d7d573d6000803e3d6000fd5b5050505050600260003373ffffffffffffffffffffffffffffffffffffffff1673ffffffffffffffffffffffffffffffffffffffff168152602001908152602001600020819080600181540180825580915050600190039060005260206000200160009091909190915055807f60d59b58b916d11d0ac52c397e342e25ae6dc5da412115d469d304bf4dd8640433604051610e189190611bdb565b60405180910390a250565b60035481565b60006020528060005260406000206000915090508060000154908060010160009054906101000a900473ffffffffffffffffffffffffffffffffffffffff1690806002018054610e789061185a565b80601f0160208091040260200160405190810160405280929190818152602001828054610ea49061185a565b8015610ef15780601f10610ec657610100808354040283529160200191610ef1565b820191906000526020600020905b815481529060010190602001808311610ed457829003601f168201915b505050505090806003018054610f069061185a565b80601f0160208091040260200160405190810160405280929190818152602001828054610f329061185a565b8015610f7f5780601f10610f5457610100808354040283529160200191610f7f565b820191906000526020600020905b815481529060010190602001808311610f6257829003601f168201915b5050505050908060040154908060050154908060060154908060070160009054906101000a900460ff1690806008018054610fb99061185a565b80601f0160208091040260200160405190810160405280929190818152602001828054610fe59061185a565b80156110325780601f1061100757610100808354040283529160200191611032565b820191906000526020600020905b81548152906001019060200180831161101557829003601f168201915b505050505090806009015490508a565b600073ffffffffffffffffffffffffffffffffffffffff82169050919050565b6000819050919050565b600061108761108261107d84611042565b611062565b611042565b9050919050565b60006110998261106c565b9050919050565b60006110ab8261108e565b9050919050565b6110bb816110a0565b82525050565b60006020820190506110d660008301846110b2565b92915050565b600080fd5b600080fd5b600080fd5b600080fd5b600080fd5b60008083601f84011261110b5761110a6110e6565b5b8235905067ffffffffffffffff811115611128576111276110eb565b5b602083019150836001820283011115611144576111436110f0565b5b9250929050565b6000819050919050565b61115e8161114b565b811461116957600080fd5b50565b60008135905061117b81611155565b92915050565b60008060008060008060008060a0898b0312156111a1576111a06110dc565b5b600089013567ffffffffffffffff8111156111bf576111be6110e1565b5b6111cb8b828c016110f5565b985098505060206111de8b828c0161116c565b965050604089013567ffffffffffffffff8111156111ff576111fe6110e1565b5b61120b8b828c016110f5565b9550955050606061121e8b828c0161116c565b935050608089013567ffffffffffffffff81111561123f5761123e6110e1565b5b61124b8b828c016110f5565b92509250509295985092959890939650565b6112668161114b565b82525050565b6000602082019050611281600083018461125d565b92915050565b60006020828403121561129d5761129c6110dc565b5b60006112ab8482850161116c565b91505092915050565b60008115159050919050565b6112c9816112b4565b82525050565b60006112da82611042565b9050919050565b6112ea816112cf565b82525050565b600081519050919050565b600082825260208201905092915050565b60005b8381101561132a57808201518184015260208101905061130f565b60008484015250505050565b6000601f19601f8301169050919050565b6000611352826112f0565b61135c81856112fb565b935061136c81856020860161130c565b61137581611336565b840191505092915050565b600060e082019050611395600083018a61125d565b6113a2602083018961125d565b6113af60408301886112c0565b6113bc60608301876112c0565b6113c960808301866112e1565b81810360a08301526113db8185611347565b905081810360c08301526113ef8184611347565b905098975050505050505050565b60006114088261108e565b9050919050565b611418816113fd565b82525050565b6000602082019050611433600083018461140f565b92915050565b611442816112cf565b811461144d57600080fd5b50565b60008135905061145f81611439565b92915050565b6000806040838503121561147c5761147b6110dc565b5b600061148a85828601611450565b925050602061149b8582860161116c565b9150509250929050565b6000806000806000606086880312156114c1576114c06110dc565b5b60006114cf8882890161116c565b955050602086013567ffffffffffffffff8111156114f0576114ef6110e1565b5b6114fc888289016110f5565b9450945050604086013567ffffffffffffffff81111561151f5761151e6110e1565b5b61152b888289016110f5565b92509250509295509295909350565b600061014082019050611550600083018d61125d565b61155d602083018c6112e1565b818103604083015261156f818b611347565b90508181036060830152611583818a611347565b9050611592608083018961125d565b61159f60a083018861125d565b6115ac60c083018761125d565b6115b960e08301866112c0565b8181036101008301526115cc8185611347565b90506115dc61012083018461125d565b9b9a5050505050505050505050565b7f4e487b7100000000000000000000000000000000000000000000000000000000600052601160045260246000fd5b60006116258261114b565b91506116308361114b565b9250828203905081811115611648576116476115eb565b5b92915050565b60006116598261114b565b91506116648361114b565b92508282026116728161114b565b91508282048414831517611689576116886115eb565b5b5092915050565b7f4e487b7100000000000000000000000000000000000000000000000000000000600052601260045260246000fd5b60006116ca8261114b565b91506116d58361114b565b9250826116e5576116e4611690565b5b828204905092915050565b600060608201905061170560008301866112e1565b61171260208301856112e1565b61171f604083018461125d565b949350505050565b611730816112b4565b811461173b57600080fd5b50565b60008151905061174d81611727565b92915050565b600060208284031215611769576117686110dc565b5b60006117778482850161173e565b91505092915050565b600061178b8261114b565b91507fffffffffffffffffffffffffffffffffffffffffffffffffffffffffffffffff82036117bd576117bc6115eb565b5b600182019050919050565b60006117d38261114b565b91506117de8361114b565b92508282019050808211156117f6576117f56115eb565b5b92915050565b7f4e487b7100000000000000000000000000000000000000000000000000000000600052604160045260246000fd5b7f4e487b7100000000000000000000000000000000000000000000000000000000600052602260045260246000fd5b6000600282049050600182168061187257607f821691505b6020821081036118855761188461182b565b5b50919050565b60008190508160005260206000209050919050565b60006020601f8301049050919050565b600082821b905092915050565b6000600883026118ed7fffffffffffffffffffffffffffffffffffffffffffffffffffffffffffffffff826118b0565b6118f786836118b0565b95508019841693508086168417925050509392505050565b600061192a6119256119208461114b565b611062565b61114b565b9050919050565b6000819050919050565b6119448361190f565b61195861195082611931565b8484546118bd565b825550505050565b600090565b61196d611960565b61197881848461193b565b505050565b5b8181101561199c57611991600082611965565b60018101905061197e565b5050565b601f8211156119e1576119b28161188b565b6119bb846118a0565b810160208510156119ca578190505b6119de6119d6856118a0565b83018261197d565b50505b505050565b600082821c905092915050565b6000611a04600019846008026119e6565b1980831691505092915050565b6000611a1d83836119f3565b9150826002028217905092915050565b611a36826112f0565b67ffffffffffffffff811115611a4f57611a4e6117fc565b5b611a59825461185a565b611a648282856119a0565b600060209050601f831160018114611a975760008415611a85578287015190505b611a8f8582611a11565b865550611af7565b601f198416611aa58661188b565b60005b82811015611acd57848901518255600182019150602085019450602081019050611aa8565b86831015611aea5784890151611ae6601f8916826119f3565b8355505b6001600288020188555050505b505050505050565b6000608082019050611b1460008301876112e1565b611b21602083018661125d565b611b2e604083018561125d565b611b3b606083018461125d565b95945050505050565b82818337600083830152505050565b6000611b5f83856112fb565b9350611b6c838584611b44565b611b7583611336565b840190509392505050565b6000604082019050611b9560008301866112e1565b8181036020830152611ba8818486611b53565b9050949350505050565b6000604082019050611bc760008301856112e1565b611bd4602083018461125d565b9392505050565b6000602082019050611bf060008301846112e1565b9291505056fea2646970667358221220df416684362e8201e87ad448c9d34a6d282a886b76fda457e85695bbd72adc2364736f6c63430008150033",
  "linkReferences": {},
  "deployedLinkReferences": {}
}