{
  "_format": "hh-sol-artifact-1",
  "contractName": "Something",
  "sourceName": "contracts/Something.sol",
  "abi": [
    {
      "inputs": [
        {
          "internalType": "address",
          "name": "safeTokenAddress",
          "type": "address"
        },
        {
          "internalType": "address",
          "name": "insurancePoolAddress",
          "type": "address"
        }
      ],
      "stateMutability": "nonpayable",
      "type": "constructor"
    },
    {
      "inputs": [],
      "name": "insurancePool",
      "outputs": [
        {
          "internalType": "contract IInsurancePool",
          "name": "",
          "type": "address"
        }
      ],
      "stateMutability": "view",
      "type": "function"
    },
    {
      "inputs": [],
      "name": "token",
      "outputs": [
        {
          "internalType": "contract IToken",
          "name": "",
          "type": "address"
        }
      ],
      "stateMutability": "view",
      "type": "function"
    }
  ],
  "bytecode": "0x608060405234801561001057600080fd5b506040516103393803806103398339818101604052810190610032919061011d565b816000806101000a81548173ffffffffffffffffffffffffffffffffffffffff021916908373ffffffffffffffffffffffffffffffffffffffff16021790555080600160006101000a81548173ffffffffffffffffffffffffffffffffffffffff021916908373ffffffffffffffffffffffffffffffffffffffff160217905550505061015d565b600080fd5b600073ffffffffffffffffffffffffffffffffffffffff82169050919050565b60006100ea826100bf565b9050919050565b6100fa816100df565b811461010557600080fd5b50565b600081519050610117816100f1565b92915050565b60008060408385031215610134576101336100ba565b5b600061014285828601610108565b925050602061015385828601610108565b9150509250929050565b6101cd8061016c6000396000f3fe608060405234801561001057600080fd5b50600436106100365760003560e01c8063ab2adc001461003b578063fc0c546a14610059575b600080fd5b610043610077565b6040516100509190610140565b60405180910390f35b61006161009d565b60405161006e919061017c565b60405180910390f35b600160009054906101000a900473ffffffffffffffffffffffffffffffffffffffff1681565b60008054906101000a900473ffffffffffffffffffffffffffffffffffffffff1681565b600073ffffffffffffffffffffffffffffffffffffffff82169050919050565b6000819050919050565b60006101066101016100fc846100c1565b6100e1565b6100c1565b9050919050565b6000610118826100eb565b9050919050565b600061012a8261010d565b9050919050565b61013a8161011f565b82525050565b60006020820190506101556000830184610131565b92915050565b60006101668261010d565b9050919050565b6101768161015b565b82525050565b6000602082019050610191600083018461016d565b9291505056fea264697066735822122082d9b29681d584479c3f0360a529c80c42c8558e0976e1c4addc614f02c8888b64736f6c63430008150033",
  "linkReferences": {},
  "deployedLinkReferences": {}
}