{
  "_format": "hh-sol-artifact-1",
  "contractName": "InsurancePool",
  "sourceName": "contracts/InsurancePool.sol",
  "abi": [
    {
      "inputs": [
        {
          "internalType": "address",
          "name": "_safeToken",
          "type": "address"
        }
      ],
      "stateMutability": "nonpayable",
      "type": "constructor"
    },
    {
      "inputs": [
        {
          "internalType": "address",
          "name": "owner",
          "type": "address"
        }
      ],
      "name": "OwnableInvalidOwner",
      "type": "error"
    },
    {
      "inputs": [
        {
          "internalType": "address",
          "name": "account",
          "type": "address"
        }
      ],
      "name": "OwnableUnauthorizedAccount",
      "type": "error"
    },
    {
      "anonymous": false,
      "inputs": [
        {
          "indexed": false,
          "internalType": "address",
          "name": "to",
          "type": "address"
        },
        {
          "indexed": false,
          "internalType": "uint256",
          "name": "claimPaid",
          "type": "uint256"
        }
      ],
      "name": "ClaimPaid",
      "type": "event"
    },
    {
      "anonymous": false,
      "inputs": [
        {
          "indexed": false,
          "internalType": "address",
          "name": "provider",
          "type": "address"
        },
        {
          "indexed": false,
          "internalType": "uint256",
          "name": "amount",
          "type": "uint256"
        }
      ],
      "name": "LiquidityProvided",
      "type": "event"
    },
    {
      "anonymous": false,
      "inputs": [
        {
          "indexed": false,
          "internalType": "address",
          "name": "provider",
          "type": "address"
        },
        {
          "indexed": false,
          "internalType": "uint256",
          "name": "amount",
          "type": "uint256"
        }
      ],
      "name": "LiquidityWithdrawn",
      "type": "event"
    },
    {
      "anonymous": false,
      "inputs": [
        {
          "indexed": true,
          "internalType": "address",
          "name": "previousOwner",
          "type": "address"
        },
        {
          "indexed": true,
          "internalType": "address",
          "name": "newOwner",
          "type": "address"
        }
      ],
      "name": "OwnershipTransferred",
      "type": "event"
    },
    {
      "anonymous": false,
      "inputs": [
        {
          "indexed": false,
          "internalType": "address",
          "name": "_addr",
          "type": "address"
        },
        {
          "indexed": false,
          "internalType": "uint256",
          "name": "_premium",
          "type": "uint256"
        }
      ],
      "name": "PremiumReceived",
      "type": "event"
    },
    {
      "anonymous": false,
      "inputs": [
        {
          "indexed": false,
          "internalType": "address",
          "name": "provider",
          "type": "address"
        },
        {
          "indexed": false,
          "internalType": "uint256",
          "name": "amount",
          "type": "uint256"
        }
      ],
      "name": "RewardsClaimed",
      "type": "event"
    },
    {
      "inputs": [],
      "name": "checkTransferFrom",
      "outputs": [],
      "stateMutability": "nonpayable",
      "type": "function"
    },
    {
      "inputs": [],
      "name": "claimRewards",
      "outputs": [],
      "stateMutability": "nonpayable",
      "type": "function"
    },
    {
      "inputs": [
        {
          "internalType": "address",
          "name": "provider",
          "type": "address"
        }
      ],
      "name": "getProviderBalance",
      "outputs": [
        {
          "internalType": "uint256",
          "name": "",
          "type": "uint256"
        }
      ],
      "stateMutability": "view",
      "type": "function"
    },
    {
      "inputs": [],
      "name": "getTotalLiquidity",
      "outputs": [
        {
          "internalType": "uint256",
          "name": "",
          "type": "uint256"
        }
      ],
      "stateMutability": "view",
      "type": "function"
    },
    {
      "inputs": [],
      "name": "owner",
      "outputs": [
        {
          "internalType": "address",
          "name": "",
          "type": "address"
        }
      ],
      "stateMutability": "view",
      "type": "function"
    },
    {
      "inputs": [
        {
          "internalType": "address",
          "name": "to",
          "type": "address"
        },
        {
          "internalType": "uint256",
          "name": "amount",
          "type": "uint256"
        }
      ],
      "name": "payClaim",
      "outputs": [],
      "stateMutability": "nonpayable",
      "type": "function"
    },
    {
      "inputs": [],
      "name": "policyManager",
      "outputs": [
        {
          "internalType": "address",
          "name": "",
          "type": "address"
        }
      ],
      "stateMutability": "view",
      "type": "function"
    },
    {
      "inputs": [],
      "name": "provideLiquidity",
      "outputs": [],
      "stateMutability": "payable",
      "type": "function"
    },
    {
      "inputs": [
        {
          "internalType": "address",
          "name": "",
          "type": "address"
        }
      ],
      "name": "providers",
      "outputs": [
        {
          "internalType": "uint256",
          "name": "balance",
          "type": "uint256"
        },
        {
          "internalType": "uint256",
          "name": "lastUpdateTime",
          "type": "uint256"
        }
      ],
      "stateMutability": "view",
      "type": "function"
    },
    {
      "inputs": [
        {
          "internalType": "address",
          "name": "from",
          "type": "address"
        },
        {
          "internalType": "uint256",
          "name": "amount",
          "type": "uint256"
        }
      ],
      "name": "receivePremium",
      "outputs": [],
      "stateMutability": "payable",
      "type": "function"
    },
    {
      "inputs": [],
      "name": "renounceOwnership",
      "outputs": [],
      "stateMutability": "nonpayable",
      "type": "function"
    },
    {
      "inputs": [],
      "name": "rewardRate",
      "outputs": [
        {
          "internalType": "uint256",
          "name": "",
          "type": "uint256"
        }
      ],
      "stateMutability": "view",
      "type": "function"
    },
    {
      "inputs": [
        {
          "internalType": "address",
          "name": "",
          "type": "address"
        }
      ],
      "name": "rewardsOfProviders",
      "outputs": [
        {
          "internalType": "uint256",
          "name": "",
          "type": "uint256"
        }
      ],
      "stateMutability": "view",
      "type": "function"
    },
    {
      "inputs": [],
      "name": "safeToken",
      "outputs": [
        {
          "internalType": "contract IToken",
          "name": "",
          "type": "address"
        }
      ],
      "stateMutability": "view",
      "type": "function"
    },
    {
      "inputs": [
        {
          "internalType": "address",
          "name": "_policyManager",
          "type": "address"
        }
      ],
      "name": "setPolicyManager",
      "outputs": [],
      "stateMutability": "nonpayable",
      "type": "function"
    },
    {
      "inputs": [
        {
          "internalType": "uint256",
          "name": "_rewardRate",
          "type": "uint256"
        }
      ],
      "name": "setRewardRate",
      "outputs": [],
      "stateMutability": "nonpayable",
      "type": "function"
    },
    {
      "inputs": [],
      "name": "totalLiquidity",
      "outputs": [
        {
          "internalType": "uint256",
          "name": "",
          "type": "uint256"
        }
      ],
      "stateMutability": "view",
      "type": "function"
    },
    {
      "inputs": [
        {
          "internalType": "address",
          "name": "newOwner",
          "type": "address"
        }
      ],
      "name": "transferOwnership",
      "outputs": [],
      "stateMutability": "nonpayable",
      "type": "function"
    },
    {
      "inputs": [
        {
          "internalType": "uint256",
          "name": "amount",
          "type": "uint256"
        }
      ],
      "name": "withdrawLiquidity",
      "outputs": [],
      "stateMutability": "nonpayable",
      "type": "function"
    }
  ],
  "bytecode": "0x60806040523480156200001157600080fd5b506040516200217d3803806200217d833981810160405281019062000037919062000235565b33600073ffffffffffffffffffffffffffffffffffffffff168173ffffffffffffffffffffffffffffffffffffffff1603620000ad5760006040517f1e4fbdf7000000000000000000000000000000000000000000000000000000008152600401620000a4919062000278565b60405180910390fd5b620000be816200010760201b60201c565b5080600160006101000a81548173ffffffffffffffffffffffffffffffffffffffff021916908373ffffffffffffffffffffffffffffffffffffffff1602179055505062000295565b60008060009054906101000a900473ffffffffffffffffffffffffffffffffffffffff169050816000806101000a81548173ffffffffffffffffffffffffffffffffffffffff021916908373ffffffffffffffffffffffffffffffffffffffff1602179055508173ffffffffffffffffffffffffffffffffffffffff168173ffffffffffffffffffffffffffffffffffffffff167f8be0079c531659141344cd1fd0a4f28419497f9722a3daafe3b4186f6b6457e060405160405180910390a35050565b600080fd5b600073ffffffffffffffffffffffffffffffffffffffff82169050919050565b6000620001fd82620001d0565b9050919050565b6200020f81620001f0565b81146200021b57600080fd5b50565b6000815190506200022f8162000204565b92915050565b6000602082840312156200024e576200024d620001cb565b5b60006200025e848285016200021e565b91505092915050565b6200027281620001f0565b82525050565b60006020820190506200028f600083018462000267565b92915050565b611ed880620002a56000396000f3fe6080604052600436106101145760003560e01c8063715018a6116100a0578063ab3dbf3b11610064578063ab3dbf3b14610335578063adde41e114610360578063d5a867b714610389578063ee039aca146103a5578063f2fde38b146103e257610114565b8063715018a6146102625780637b0a47ee14610279578063832eea0c146102a45780638da5cb5b146102e15780639e447fc61461030c57610114565b8063372500ab116100e7578063372500ab146101d65780634b3fd05a146101ed57806350802e3f1461021857806360c97b2214610241578063641ca4521461024b57610114565b80630787bc27146101195780630a861f2a1461015757806315770f921461018057806335c7e925146101ab575b600080fd5b34801561012557600080fd5b50610140600480360381019061013b9190611620565b61040b565b60405161014e929190611666565b60405180910390f35b34801561016357600080fd5b5061017e600480360381019061017991906116bb565b61042f565b005b34801561018c57600080fd5b50610195610641565b6040516101a291906116e8565b60405180910390f35b3480156101b757600080fd5b506101c0610647565b6040516101cd91906116e8565b60405180910390f35b3480156101e257600080fd5b506101eb610651565b005b3480156101f957600080fd5b506102026108bb565b60405161020f9190611762565b60405180910390f35b34801561022457600080fd5b5061023f600480360381019061023a919061177d565b6108e1565b005b610249610ab9565b005b34801561025757600080fd5b50610260610cb3565b005b34801561026e57600080fd5b50610277610fd2565b005b34801561028557600080fd5b5061028e610fe6565b60405161029b91906116e8565b60405180910390f35b3480156102b057600080fd5b506102cb60048036038101906102c69190611620565b610fec565b6040516102d891906116e8565b60405180910390f35b3480156102ed57600080fd5b506102f6611038565b60405161030391906117cc565b60405180910390f35b34801561031857600080fd5b50610333600480360381019061032e91906116bb565b611061565b005b34801561034157600080fd5b5061034a611073565b60405161035791906117cc565b60405180910390f35b34801561036c57600080fd5b5061038760048036038101906103829190611620565b611099565b005b6103a3600480360381019061039e919061177d565b6110e5565b005b3480156103b157600080fd5b506103cc60048036038101906103c79190611620565b61120d565b6040516103d991906116e8565b60405180910390f35b3480156103ee57600080fd5b5061040960048036038101906104049190611620565b611225565b005b60026020528060005260406000206000915090508060000154908060010154905082565b80600260003373ffffffffffffffffffffffffffffffffffffffff1673ffffffffffffffffffffffffffffffffffffffff1681526020019081526020016000206000015410156104b4576040517f08c379a00000000000000000000000000000000000000000000000000000000081526004016104ab90611844565b60405180910390fd5b6104bd336112ab565b80600260003373ffffffffffffffffffffffffffffffffffffffff1673ffffffffffffffffffffffffffffffffffffffff168152602001908152602001600020600001600082825461050f9190611893565b9250508190555080600460008282546105289190611893565b92505081905550600160009054906101000a900473ffffffffffffffffffffffffffffffffffffffff1673ffffffffffffffffffffffffffffffffffffffff16639dc29fac33836040518363ffffffff1660e01b815260040161058c9291906118c7565b600060405180830381600087803b1580156105a657600080fd5b505af11580156105ba573d6000803e3d6000fd5b505050503373ffffffffffffffffffffffffffffffffffffffff166108fc829081150290604051600060405180830381858888f19350505050158015610604573d6000803e3d6000fd5b507fb1cce8684b4ffa8667b4577654e61ee3480d661ee9c27522ac80e211f6bd4d2533826040516106369291906118c7565b60405180910390a150565b60045481565b6000600454905090565b61065a336112ab565b6000600260003373ffffffffffffffffffffffffffffffffffffffff1673ffffffffffffffffffffffffffffffffffffffff16815260200190815260200160002060000154905060008111156108b8576000600260003373ffffffffffffffffffffffffffffffffffffffff1673ffffffffffffffffffffffffffffffffffffffff16815260200190815260200160002060000181905550600160009054906101000a900473ffffffffffffffffffffffffffffffffffffffff1673ffffffffffffffffffffffffffffffffffffffff1663a9059cbb33836040518363ffffffff1660e01b815260040161074f9291906118c7565b6020604051808303816000875af115801561076e573d6000803e3d6000fd5b505050506040513d601f19601f820116820180604052508101906107929190611928565b6107d1576040517f08c379a00000000000000000000000000000000000000000000000000000000081526004016107c8906119a1565b60405180910390fd5b60003373ffffffffffffffffffffffffffffffffffffffff16826040516107f7906119f2565b60006040518083038185875af1925050503d8060008114610834576040519150601f19603f3d011682016040523d82523d6000602084013e610839565b606091505b505090508061087d576040517f08c379a000000000000000000000000000000000000000000000000000000000815260040161087490611a53565b60405180910390fd5b7ffc30cddea38e2bf4d6ea7d3f9ed3b6ad7f176419f4963bd81318067a4aee73fe33836040516108ae9291906118c7565b60405180910390a1505b50565b600160009054906101000a900473ffffffffffffffffffffffffffffffffffffffff1681565b600660009054906101000a900473ffffffffffffffffffffffffffffffffffffffff1673ffffffffffffffffffffffffffffffffffffffff163373ffffffffffffffffffffffffffffffffffffffff1614610971576040517f08c379a000000000000000000000000000000000000000000000000000000000815260040161096890611abf565b60405180910390fd5b8060045410156109b6576040517f08c379a00000000000000000000000000000000000000000000000000000000081526004016109ad90611b2b565b60405180910390fd5b80600460008282546109c89190611893565b9250508190555060008273ffffffffffffffffffffffffffffffffffffffff16826040516109f5906119f2565b60006040518083038185875af1925050503d8060008114610a32576040519150601f19603f3d011682016040523d82523d6000602084013e610a37565b606091505b5050905080610a7b576040517f08c379a0000000000000000000000000000000000000000000000000000000008152600401610a72906119a1565b60405180910390fd5b7ff42cf8c29487b42c009006cba2a2a0ca0388229f3183e6e957e0a0b163585cb48383604051610aac9291906118c7565b60405180910390a1505050565b600160009054906101000a900473ffffffffffffffffffffffffffffffffffffffff1673ffffffffffffffffffffffffffffffffffffffff1663095ea7b330346040518363ffffffff1660e01b8152600401610b169291906118c7565b6020604051808303816000875af1158015610b35573d6000803e3d6000fd5b505050506040513d601f19601f82011682018060405250810190610b599190611928565b50600160009054906101000a900473ffffffffffffffffffffffffffffffffffffffff1673ffffffffffffffffffffffffffffffffffffffff166323b872dd3033346040518463ffffffff1660e01b8152600401610bb993929190611b4b565b6020604051808303816000875af1158015610bd8573d6000803e3d6000fd5b505050506040513d601f19601f82011682018060405250810190610bfc9190611928565b50610c06336112ab565b34600260003373ffffffffffffffffffffffffffffffffffffffff1673ffffffffffffffffffffffffffffffffffffffff1681526020019081526020016000206000016000828254610c589190611b82565b925050819055503460046000828254610c719190611b82565b925050819055507fccb2ae3a2936bf4c94fa4e12cdf0cdad6ed0e4888a044cef89afa60f2e4b92d33334604051610ca99291906118c7565b60405180910390a1565b662386f26fc10000600160009054906101000a900473ffffffffffffffffffffffffffffffffffffffff1673ffffffffffffffffffffffffffffffffffffffff1663dd62ed3e33306040518363ffffffff1660e01b8152600401610d18929190611bb6565b602060405180830381865afa158015610d35573d6000803e3d6000fd5b505050506040513d601f19601f82011682018060405250810190610d599190611bf4565b1015610d9a576040517f08c379a0000000000000000000000000000000000000000000000000000000008152600401610d9190611c6d565b60405180910390fd5b662386f26fc10000600160009054906101000a900473ffffffffffffffffffffffffffffffffffffffff1673ffffffffffffffffffffffffffffffffffffffff166370a08231306040518263ffffffff1660e01b8152600401610dfd91906117cc565b602060405180830381865afa158015610e1a573d6000803e3d6000fd5b505050506040513d601f19601f82011682018060405250810190610e3e9190611bf4565b11610e7e576040517f08c379a0000000000000000000000000000000000000000000000000000000008152600401610e7590611cd9565b60405180910390fd5b600160009054906101000a900473ffffffffffffffffffffffffffffffffffffffff1673ffffffffffffffffffffffffffffffffffffffff1663095ea7b330662386f26fc100006040518363ffffffff1660e01b8152600401610ee2929190611d34565b6020604051808303816000875af1158015610f01573d6000803e3d6000fd5b505050506040513d601f19601f82011682018060405250810190610f259190611928565b50600160009054906101000a900473ffffffffffffffffffffffffffffffffffffffff1673ffffffffffffffffffffffffffffffffffffffff166323b872dd3033662386f26fc100006040518463ffffffff1660e01b8152600401610f8c93929190611d5d565b6020604051808303816000875af1158015610fab573d6000803e3d6000fd5b505050506040513d601f19601f82011682018060405250810190610fcf9190611928565b50565b610fda61146a565b610fe460006114f1565b565b60055481565b6000600260008373ffffffffffffffffffffffffffffffffffffffff1673ffffffffffffffffffffffffffffffffffffffff168152602001908152602001600020600001549050919050565b60008060009054906101000a900473ffffffffffffffffffffffffffffffffffffffff16905090565b61106961146a565b8060058190555050565b600660009054906101000a900473ffffffffffffffffffffffffffffffffffffffff1681565b6110a161146a565b80600660006101000a81548173ffffffffffffffffffffffffffffffffffffffff021916908373ffffffffffffffffffffffffffffffffffffffff16021790555050565b600660009054906101000a900473ffffffffffffffffffffffffffffffffffffffff1673ffffffffffffffffffffffffffffffffffffffff163373ffffffffffffffffffffffffffffffffffffffff1614611175576040517f08c379a000000000000000000000000000000000000000000000000000000000815260040161116c90611abf565b60405180910390fd5b8034146111b7576040517f08c379a00000000000000000000000000000000000000000000000000000000081526004016111ae90611de0565b60405180910390fd5b80600460008282546111c99190611b82565b925050819055507f9bf27b4e5eb1daa68da6772f8e0b994f96da65aadc40d58b37f58baed878cd0082826040516112019291906118c7565b60405180910390a15050565b60036020528060005260406000206000915090505481565b61122d61146a565b600073ffffffffffffffffffffffffffffffffffffffff168173ffffffffffffffffffffffffffffffffffffffff160361129f5760006040517f1e4fbdf700000000000000000000000000000000000000000000000000000000815260040161129691906117cc565b60405180910390fd5b6112a8816114f1565b50565b6000600260008373ffffffffffffffffffffffffffffffffffffffff1673ffffffffffffffffffffffffffffffffffffffff16815260200190815260200160002060010154426112fb9190611893565b90506000670de0b6b3a764000082600554600260008773ffffffffffffffffffffffffffffffffffffffff1673ffffffffffffffffffffffffffffffffffffffff168152602001908152602001600020600001546113599190611e00565b6113639190611e00565b61136d9190611e71565b905080600260008573ffffffffffffffffffffffffffffffffffffffff1673ffffffffffffffffffffffffffffffffffffffff16815260200190815260200160002060000160008282546113c19190611b82565b9250508190555042600260008573ffffffffffffffffffffffffffffffffffffffff1673ffffffffffffffffffffffffffffffffffffffff1681526020019081526020016000206001018190555080600360008573ffffffffffffffffffffffffffffffffffffffff1673ffffffffffffffffffffffffffffffffffffffff168152602001908152602001600020600082825461145e9190611b82565b92505081905550505050565b6114726115b5565b73ffffffffffffffffffffffffffffffffffffffff16611490611038565b73ffffffffffffffffffffffffffffffffffffffff16146114ef576114b36115b5565b6040517f118cdaa70000000000000000000000000000000000000000000000000000000081526004016114e691906117cc565b60405180910390fd5b565b60008060009054906101000a900473ffffffffffffffffffffffffffffffffffffffff169050816000806101000a81548173ffffffffffffffffffffffffffffffffffffffff021916908373ffffffffffffffffffffffffffffffffffffffff1602179055508173ffffffffffffffffffffffffffffffffffffffff168173ffffffffffffffffffffffffffffffffffffffff167f8be0079c531659141344cd1fd0a4f28419497f9722a3daafe3b4186f6b6457e060405160405180910390a35050565b600033905090565b600080fd5b600073ffffffffffffffffffffffffffffffffffffffff82169050919050565b60006115ed826115c2565b9050919050565b6115fd816115e2565b811461160857600080fd5b50565b60008135905061161a816115f4565b92915050565b600060208284031215611636576116356115bd565b5b60006116448482850161160b565b91505092915050565b6000819050919050565b6116608161164d565b82525050565b600060408201905061167b6000830185611657565b6116886020830184611657565b9392505050565b6116988161164d565b81146116a357600080fd5b50565b6000813590506116b58161168f565b92915050565b6000602082840312156116d1576116d06115bd565b5b60006116df848285016116a6565b91505092915050565b60006020820190506116fd6000830184611657565b92915050565b6000819050919050565b600061172861172361171e846115c2565b611703565b6115c2565b9050919050565b600061173a8261170d565b9050919050565b600061174c8261172f565b9050919050565b61175c81611741565b82525050565b60006020820190506117776000830184611753565b92915050565b60008060408385031215611794576117936115bd565b5b60006117a28582860161160b565b92505060206117b3858286016116a6565b9150509250929050565b6117c6816115e2565b82525050565b60006020820190506117e160008301846117bd565b92915050565b600082825260208201905092915050565b7f496e73756666696369656e742062616c616e6365000000000000000000000000600082015250565b600061182e6014836117e7565b9150611839826117f8565b602082019050919050565b6000602082019050818103600083015261185d81611821565b9050919050565b7f4e487b7100000000000000000000000000000000000000000000000000000000600052601160045260246000fd5b600061189e8261164d565b91506118a98361164d565b92508282039050818111156118c1576118c0611864565b5b92915050565b60006040820190506118dc60008301856117bd565b6118e96020830184611657565b9392505050565b60008115159050919050565b611905816118f0565b811461191057600080fd5b50565b600081519050611922816118fc565b92915050565b60006020828403121561193e5761193d6115bd565b5b600061194c84828501611913565b91505092915050565b7f5472616e73666572206661696c65640000000000000000000000000000000000600082015250565b600061198b600f836117e7565b915061199682611955565b602082019050919050565b600060208201905081810360008301526119ba8161197e565b9050919050565b600081905092915050565b50565b60006119dc6000836119c1565b91506119e7826119cc565b600082019050919050565b60006119fd826119cf565b9150819050919050565b7f58464920546f6b656e73207472616e73666572206661696c6564000000000000600082015250565b6000611a3d601a836117e7565b9150611a4882611a07565b602082019050919050565b60006020820190508181036000830152611a6c81611a30565b9050919050565b7f43616c6c6572206973206e6f742074686520506f6c6963794d616e6167657200600082015250565b6000611aa9601f836117e7565b9150611ab482611a73565b602082019050919050565b60006020820190508181036000830152611ad881611a9c565b9050919050565b7f496e73756666696369656e74206c697175696469747920666f7220636c61696d600082015250565b6000611b156020836117e7565b9150611b2082611adf565b602082019050919050565b60006020820190508181036000830152611b4481611b08565b9050919050565b6000606082019050611b6060008301866117bd565b611b6d60208301856117bd565b611b7a6040830184611657565b949350505050565b6000611b8d8261164d565b9150611b988361164d565b9250828201905080821115611bb057611baf611864565b5b92915050565b6000604082019050611bcb60008301856117bd565b611bd860208301846117bd565b9392505050565b600081519050611bee8161168f565b92915050565b600060208284031215611c0a57611c096115bd565b5b6000611c1884828501611bdf565b91505092915050565b7f4c65737320616c6c6f77616e6365207468616e206e6565646564000000000000600082015250565b6000611c57601a836117e7565b9150611c6282611c21565b602082019050919050565b60006020820190508181036000830152611c8681611c4a565b9050919050565b7f496e73756666696369656e742066756e64730000000000000000000000000000600082015250565b6000611cc36012836117e7565b9150611cce82611c8d565b602082019050919050565b60006020820190508181036000830152611cf281611cb6565b9050919050565b6000819050919050565b6000611d1e611d19611d1484611cf9565b611703565b61164d565b9050919050565b611d2e81611d03565b82525050565b6000604082019050611d4960008301856117bd565b611d566020830184611d25565b9392505050565b6000606082019050611d7260008301866117bd565b611d7f60208301856117bd565b611d8c6040830184611d25565b949350505050565b7f496e73756666696369656e742046756e6473205472616e736665727265640000600082015250565b6000611dca601e836117e7565b9150611dd582611d94565b602082019050919050565b60006020820190508181036000830152611df981611dbd565b9050919050565b6000611e0b8261164d565b9150611e168361164d565b9250828202611e248161164d565b91508282048414831517611e3b57611e3a611864565b5b5092915050565b7f4e487b7100000000000000000000000000000000000000000000000000000000600052601260045260246000fd5b6000611e7c8261164d565b9150611e878361164d565b925082611e9757611e96611e42565b5b82820490509291505056fea264697066735822122036bddd0dfd30270d96d9040217ad4ac13b44bc463238bce62e92f29a18724ae364736f6c63430008150033",
  "linkReferences": {},
  "deployedLinkReferences": {}
}