{
  "_format": "hh-sol-artifact-1",
  "contractName": "PolicyManager",
  "sourceName": "contracts/PolicyManager.sol",
  "abi": [
    {
      "inputs": [
        {
          "internalType": "address",
          "name": "_safeToken",
          "type": "address"
        },
        {
          "internalType": "address",
          "name": "_insurancePool",
          "type": "address"
        }
      ],
      "stateMutability": "nonpayable",
      "type": "constructor"
    },
    {
      "inputs": [
        {
          "internalType": "address",
          "name": "owner",
          "type": "address"
        }
      ],
      "name": "OwnableInvalidOwner",
      "type": "error"
    },
    {
      "inputs": [
        {
          "internalType": "address",
          "name": "account",
          "type": "address"
        }
      ],
      "name": "OwnableUnauthorizedAccount",
      "type": "error"
    },
    {
      "anonymous": false,
      "inputs": [
        {
          "indexed": true,
          "internalType": "uint256",
          "name": "policyId",
          "type": "uint256"
        },
        {
          "indexed": false,
          "internalType": "address",
          "name": "buyer",
          "type": "address"
        },
        {
          "indexed": false,
          "internalType": "string",
          "name": "description",
          "type": "string"
        }
      ],
      "name": "ClaimCreated",
      "type": "event"
    },
    {
      "anonymous": false,
      "inputs": [
        {
          "indexed": true,
          "internalType": "address",
          "name": "previousOwner",
          "type": "address"
        },
        {
          "indexed": true,
          "internalType": "address",
          "name": "newOwner",
          "type": "address"
        }
      ],
      "name": "OwnershipTransferred",
      "type": "event"
    },
    {
      "anonymous": false,
      "inputs": [
        {
          "indexed": true,
          "internalType": "uint256",
          "name": "policyId",
          "type": "uint256"
        },
        {
          "indexed": false,
          "internalType": "address",
          "name": "owner",
          "type": "address"
        },
        {
          "indexed": false,
          "internalType": "uint256",
          "name": "claimAmount",
          "type": "uint256"
        }
      ],
      "name": "PolicyClaimed",
      "type": "event"
    },
    {
      "anonymous": false,
      "inputs": [
        {
          "indexed": true,
          "internalType": "uint256",
          "name": "policyId",
          "type": "uint256"
        },
        {
          "indexed": false,
          "internalType": "address",
          "name": "owner",
          "type": "address"
        },
        {
          "indexed": false,
          "internalType": "uint256",
          "name": "coverageAmount",
          "type": "uint256"
        },
        {
          "indexed": false,
          "internalType": "uint256",
          "name": "premium",
          "type": "uint256"
        },
        {
          "indexed": false,
          "internalType": "uint256",
          "name": "expirationDate",
          "type": "uint256"
        }
      ],
      "name": "PolicyCreated",
      "type": "event"
    },
    {
      "anonymous": false,
      "inputs": [
        {
          "indexed": true,
          "internalType": "uint256",
          "name": "policyId",
          "type": "uint256"
        },
        {
          "indexed": false,
          "internalType": "address",
          "name": "buyer",
          "type": "address"
        }
      ],
      "name": "PolicyPurchased",
      "type": "event"
    },
    {
      "anonymous": false,
      "inputs": [
        {
          "indexed": true,
          "internalType": "uint256",
          "name": "policyId",
          "type": "uint256"
        },
        {
          "indexed": false,
          "internalType": "address",
          "name": "buyer",
          "type": "address"
        },
        {
          "indexed": false,
          "internalType": "uint256",
          "name": "amountPaid",
          "type": "uint256"
        }
      ],
      "name": "PremiumPaid",
      "type": "event"
    },
    {
      "inputs": [
        {
          "internalType": "uint256",
          "name": "",
          "type": "uint256"
        }
      ],
      "name": "Claims",
      "outputs": [
        {
          "internalType": "uint256",
          "name": "claimId",
          "type": "uint256"
        },
        {
          "internalType": "uint256",
          "name": "policyId",
          "type": "uint256"
        },
        {
          "internalType": "bool",
          "name": "isVerified",
          "type": "bool"
        },
        {
          "internalType": "bool",
          "name": "isPaid",
          "type": "bool"
        },
        {
          "internalType": "address",
          "name": "buyerAddress",
          "type": "address"
        },
        {
          "internalType": "string",
          "name": "documentIPFSHash",
          "type": "string"
        },
        {
          "internalType": "string",
          "name": "description",
          "type": "string"
        }
      ],
      "stateMutability": "view",
      "type": "function"
    },
    {
      "inputs": [
        {
          "internalType": "uint256",
          "name": "",
          "type": "uint256"
        }
      ],
      "name": "UnverifiedClaims",
      "outputs": [
        {
          "internalType": "uint256",
          "name": "claimId",
          "type": "uint256"
        },
        {
          "internalType": "uint256",
          "name": "policyId",
          "type": "uint256"
        },
        {
          "internalType": "bool",
          "name": "isVerified",
          "type": "bool"
        },
        {
          "internalType": "bool",
          "name": "isPaid",
          "type": "bool"
        },
        {
          "internalType": "address",
          "name": "buyerAddress",
          "type": "address"
        },
        {
          "internalType": "string",
          "name": "documentIPFSHash",
          "type": "string"
        },
        {
          "internalType": "string",
          "name": "description",
          "type": "string"
        }
      ],
      "stateMutability": "view",
      "type": "function"
    },
    {
      "inputs": [
        {
          "internalType": "address",
          "name": "user",
          "type": "address"
        },
        {
          "internalType": "uint256",
          "name": "",
          "type": "uint256"
        }
      ],
      "name": "addressToPolicy",
      "outputs": [
        {
          "internalType": "uint256",
          "name": "policyIdArray",
          "type": "uint256"
        }
      ],
      "stateMutability": "view",
      "type": "function"
    },
    {
      "inputs": [
        {
          "internalType": "uint256",
          "name": "coverageAmount",
          "type": "uint256"
        },
        {
          "internalType": "uint256",
          "name": "duration",
          "type": "uint256"
        },
        {
          "internalType": "string",
          "name": "coverageType",
          "type": "string"
        }
      ],
      "name": "calculatePremium",
      "outputs": [
        {
          "internalType": "uint256",
          "name": "",
          "type": "uint256"
        }
      ],
      "stateMutability": "view",
      "type": "function"
    },
    {
      "inputs": [
        {
          "internalType": "uint256",
          "name": "policyId",
          "type": "uint256"
        },
        {
          "internalType": "address",
          "name": "owner",
          "type": "address"
        }
      ],
      "name": "checkOwnershipOfPolicy",
      "outputs": [
        {
          "internalType": "bool",
          "name": "",
          "type": "bool"
        }
      ],
      "stateMutability": "view",
      "type": "function"
    },
    {
      "inputs": [
        {
          "internalType": "uint256",
          "name": "policyId",
          "type": "uint256"
        },
        {
          "internalType": "string",
          "name": "_documentIPFSHash",
          "type": "string"
        },
        {
          "internalType": "string",
          "name": "_description",
          "type": "string"
        }
      ],
      "name": "claimPolicy",
      "outputs": [],
      "stateMutability": "nonpayable",
      "type": "function"
    },
    {
      "inputs": [
        {
          "internalType": "string",
          "name": "_title",
          "type": "string"
        },
        {
          "internalType": "uint256",
          "name": "coverageAmount",
          "type": "uint256"
        },
        {
          "internalType": "string",
          "name": "_description",
          "type": "string"
        },
        {
          "internalType": "uint256",
          "name": "expirationDate",
          "type": "uint256"
        },
        {
          "internalType": "string",
          "name": "coverageType",
          "type": "string"
        }
      ],
      "name": "createPolicy",
      "outputs": [
        {
          "internalType": "uint256",
          "name": "",
          "type": "uint256"
        }
      ],
      "stateMutability": "nonpayable",
      "type": "function"
    },
    {
      "inputs": [],
      "name": "getAllPolicies",
      "outputs": [
        {
          "components": [
            {
              "internalType": "uint256",
              "name": "id",
              "type": "uint256"
            },
            {
              "internalType": "address",
              "name": "owner",
              "type": "address"
            },
            {
              "internalType": "string",
              "name": "title",
              "type": "string"
            },
            {
              "internalType": "string",
              "name": "description",
              "type": "string"
            },
            {
              "internalType": "uint256",
              "name": "coverageAmount",
              "type": "uint256"
            },
            {
              "internalType": "uint256",
              "name": "premium",
              "type": "uint256"
            },
            {
              "internalType": "uint256",
              "name": "expirationDate",
              "type": "uint256"
            },
            {
              "internalType": "bool",
              "name": "isActive",
              "type": "bool"
            },
            {
              "internalType": "string",
              "name": "coverageType",
              "type": "string"
            },
            {
              "internalType": "uint256",
              "name": "nextPremiumDate",
              "type": "uint256"
            }
          ],
          "internalType": "struct IPolicyManager.Policy[]",
          "name": "",
          "type": "tuple[]"
        }
      ],
      "stateMutability": "view",
      "type": "function"
    },
    {
      "inputs": [
        {
          "internalType": "address",
          "name": "user",
          "type": "address"
        }
      ],
      "name": "getAllPoliciesForUser",
      "outputs": [
        {
          "components": [
            {
              "internalType": "uint256",
              "name": "id",
              "type": "uint256"
            },
            {
              "internalType": "address",
              "name": "owner",
              "type": "address"
            },
            {
              "internalType": "string",
              "name": "title",
              "type": "string"
            },
            {
              "internalType": "string",
              "name": "description",
              "type": "string"
            },
            {
              "internalType": "uint256",
              "name": "coverageAmount",
              "type": "uint256"
            },
            {
              "internalType": "uint256",
              "name": "premium",
              "type": "uint256"
            },
            {
              "internalType": "uint256",
              "name": "expirationDate",
              "type": "uint256"
            },
            {
              "internalType": "bool",
              "name": "isActive",
              "type": "bool"
            },
            {
              "internalType": "string",
              "name": "coverageType",
              "type": "string"
            },
            {
              "internalType": "uint256",
              "name": "nextPremiumDate",
              "type": "uint256"
            }
          ],
          "internalType": "struct IPolicyManager.Policy[]",
          "name": "",
          "type": "tuple[]"
        }
      ],
      "stateMutability": "view",
      "type": "function"
    },
    {
      "inputs": [],
      "name": "getAllUnverifiedClaims",
      "outputs": [
        {
          "components": [
            {
              "internalType": "uint256",
              "name": "claimId",
              "type": "uint256"
            },
            {
              "internalType": "uint256",
              "name": "policyId",
              "type": "uint256"
            },
            {
              "internalType": "bool",
              "name": "isVerified",
              "type": "bool"
            },
            {
              "internalType": "bool",
              "name": "isPaid",
              "type": "bool"
            },
            {
              "internalType": "address",
              "name": "buyerAddress",
              "type": "address"
            },
            {
              "internalType": "string",
              "name": "documentIPFSHash",
              "type": "string"
            },
            {
              "internalType": "string",
              "name": "description",
              "type": "string"
            }
          ],
          "internalType": "struct IPolicyManager.Claim[]",
          "name": "",
          "type": "tuple[]"
        }
      ],
      "stateMutability": "view",
      "type": "function"
    },
    {
      "inputs": [
        {
          "internalType": "uint256",
          "name": "policyId",
          "type": "uint256"
        }
      ],
      "name": "getPolicyDetails",
      "outputs": [
        {
          "components": [
            {
              "internalType": "uint256",
              "name": "id",
              "type": "uint256"
            },
            {
              "internalType": "address",
              "name": "owner",
              "type": "address"
            },
            {
              "internalType": "string",
              "name": "title",
              "type": "string"
            },
            {
              "internalType": "string",
              "name": "description",
              "type": "string"
            },
            {
              "internalType": "uint256",
              "name": "coverageAmount",
              "type": "uint256"
            },
            {
              "internalType": "uint256",
              "name": "premium",
              "type": "uint256"
            },
            {
              "internalType": "uint256",
              "name": "expirationDate",
              "type": "uint256"
            },
            {
              "internalType": "bool",
              "name": "isActive",
              "type": "bool"
            },
            {
              "internalType": "string",
              "name": "coverageType",
              "type": "string"
            },
            {
              "internalType": "uint256",
              "name": "nextPremiumDate",
              "type": "uint256"
            }
          ],
          "internalType": "struct IPolicyManager.Policy",
          "name": "",
          "type": "tuple"
        }
      ],
      "stateMutability": "view",
      "type": "function"
    },
    {
      "inputs": [],
      "name": "insurancePool",
      "outputs": [
        {
          "internalType": "contract IInsurancePool",
          "name": "",
          "type": "address"
        }
      ],
      "stateMutability": "view",
      "type": "function"
    },
    {
      "inputs": [],
      "name": "nextClaimId",
      "outputs": [
        {
          "internalType": "uint256",
          "name": "",
          "type": "uint256"
        }
      ],
      "stateMutability": "view",
      "type": "function"
    },
    {
      "inputs": [],
      "name": "nextPolicyId",
      "outputs": [
        {
          "internalType": "uint256",
          "name": "",
          "type": "uint256"
        }
      ],
      "stateMutability": "view",
      "type": "function"
    },
    {
      "inputs": [],
      "name": "owner",
      "outputs": [
        {
          "internalType": "address",
          "name": "",
          "type": "address"
        }
      ],
      "stateMutability": "view",
      "type": "function"
    },
    {
      "inputs": [
        {
          "internalType": "uint256",
          "name": "userPolicyId",
          "type": "uint256"
        }
      ],
      "name": "payPremium",
      "outputs": [],
      "stateMutability": "payable",
      "type": "function"
    },
    {
      "inputs": [
        {
          "internalType": "uint256",
          "name": "",
          "type": "uint256"
        }
      ],
      "name": "policies",
      "outputs": [
        {
          "internalType": "uint256",
          "name": "id",
          "type": "uint256"
        },
        {
          "internalType": "address",
          "name": "owner",
          "type": "address"
        },
        {
          "internalType": "string",
          "name": "title",
          "type": "string"
        },
        {
          "internalType": "string",
          "name": "description",
          "type": "string"
        },
        {
          "internalType": "uint256",
          "name": "coverageAmount",
          "type": "uint256"
        },
        {
          "internalType": "uint256",
          "name": "premium",
          "type": "uint256"
        },
        {
          "internalType": "uint256",
          "name": "expirationDate",
          "type": "uint256"
        },
        {
          "internalType": "bool",
          "name": "isActive",
          "type": "bool"
        },
        {
          "internalType": "string",
          "name": "coverageType",
          "type": "string"
        },
        {
          "internalType": "uint256",
          "name": "nextPremiumDate",
          "type": "uint256"
        }
      ],
      "stateMutability": "view",
      "type": "function"
    },
    {
      "inputs": [
        {
          "internalType": "uint256",
          "name": "policyId",
          "type": "uint256"
        }
      ],
      "name": "purchasePolicy",
      "outputs": [],
      "stateMutability": "payable",
      "type": "function"
    },
    {
      "inputs": [],
      "name": "renounceOwnership",
      "outputs": [],
      "stateMutability": "nonpayable",
      "type": "function"
    },
    {
      "inputs": [],
      "name": "safeToken",
      "outputs": [
        {
          "internalType": "contract IToken",
          "name": "",
          "type": "address"
        }
      ],
      "stateMutability": "view",
      "type": "function"
    },
    {
      "inputs": [
        {
          "internalType": "address",
          "name": "newOwner",
          "type": "address"
        }
      ],
      "name": "transferOwnership",
      "outputs": [],
      "stateMutability": "nonpayable",
      "type": "function"
    },
    {
      "inputs": [
        {
          "internalType": "uint256",
          "name": "claimId",
          "type": "uint256"
        }
      ],
      "name": "verifyClaim",
      "outputs": [],
      "stateMutability": "nonpayable",
      "type": "function"
    }
  ],
  "bytecode": "0x6080604052600160045560016005553480156200001b57600080fd5b506040516200415a3803806200415a833981810160405281019062000041919062000281565b33600073ffffffffffffffffffffffffffffffffffffffff168173ffffffffffffffffffffffffffffffffffffffff1603620000b75760006040517f1e4fbdf7000000000000000000000000000000000000000000000000000000008152600401620000ae9190620002d9565b60405180910390fd5b620000c8816200015360201b60201c565b5081600160006101000a81548173ffffffffffffffffffffffffffffffffffffffff021916908373ffffffffffffffffffffffffffffffffffffffff16021790555080600260006101000a81548173ffffffffffffffffffffffffffffffffffffffff021916908373ffffffffffffffffffffffffffffffffffffffff1602179055505050620002f6565b60008060009054906101000a900473ffffffffffffffffffffffffffffffffffffffff169050816000806101000a81548173ffffffffffffffffffffffffffffffffffffffff021916908373ffffffffffffffffffffffffffffffffffffffff1602179055508173ffffffffffffffffffffffffffffffffffffffff168173ffffffffffffffffffffffffffffffffffffffff167f8be0079c531659141344cd1fd0a4f28419497f9722a3daafe3b4186f6b6457e060405160405180910390a35050565b600080fd5b600073ffffffffffffffffffffffffffffffffffffffff82169050919050565b600062000249826200021c565b9050919050565b6200025b816200023c565b81146200026757600080fd5b50565b6000815190506200027b8162000250565b92915050565b600080604083850312156200029b576200029a62000217565b5b6000620002ab858286016200026a565b9250506020620002be858286016200026a565b9150509250929050565b620002d3816200023c565b82525050565b6000602082019050620002f06000830184620002c8565b92915050565b613e5480620003066000396000f3fe6080604052600436106101355760003560e01c8063ab2adc00116100ab578063c1260c9a1161006f578063c1260c9a1461043b578063cad0b8db14610457578063cc03801014610482578063d3e89483146104bf578063e006217914610505578063f2fde38b1461054257610135565b8063ab2adc001461033e578063bb1e110d14610369578063bbc56e2a146103a6578063beac7cc4146103e9578063c0d7e2b61461041257610135565b80636ba357e5116100fd5780636ba357e514610214578063715018a6146102515780637e469f51146102685780638da5cb5b146102a55780639e34c7d2146102d0578063a0021cf11461031357610135565b80630a3c3f9c1461013a5780631258ee9c146101775780634364b26e146101a2578063457e5521146101be5780634b3fd05a146101e9575b600080fd5b34801561014657600080fd5b50610161600480360381019061015c91906128aa565b61056b565b60405161016e9190612905565b60405180910390f35b34801561018357600080fd5b5061018c6105ee565b6040516101999190612b42565b60405180910390f35b6101bc60048036038101906101b79190612b64565b610811565b005b3480156101ca57600080fd5b506101d3610a57565b6040516101e09190612d3b565b60405180910390f35b3480156101f557600080fd5b506101fe610d79565b60405161020b9190612dbc565b60405180910390f35b34801561022057600080fd5b5061023b60048036038101906102369190612f0c565b610d9f565b6040516102489190612fea565b60405180910390f35b34801561025d57600080fd5b50610266611082565b005b34801561027457600080fd5b5061028f600480360381019061028a9190613005565b611096565b60405161029c9190612d3b565b60405180910390f35b3480156102b157600080fd5b506102ba6113fa565b6040516102c79190613041565b60405180910390f35b3480156102dc57600080fd5b506102f760048036038101906102f29190612b64565b611423565b60405161030a97969594939291906130a6565b60405180910390f35b34801561031f57600080fd5b506103286115af565b6040516103359190612fea565b60405180910390f35b34801561034a57600080fd5b506103536115b5565b6040516103609190613144565b60405180910390f35b34801561037557600080fd5b50610390600480360381019061038b919061315f565b6115db565b60405161039d9190612fea565b60405180910390f35b3480156103b257600080fd5b506103cd60048036038101906103c89190612b64565b61160c565b6040516103e097969594939291906130a6565b60405180910390f35b3480156103f557600080fd5b50610410600480360381019061040b919061319f565b6117a8565b005b34801561041e57600080fd5b5061043960048036038101906104349190612b64565b611a70565b005b61045560048036038101906104509190612b64565b611dfa565b005b34801561046357600080fd5b5061046c611fd6565b6040516104799190612fea565b60405180910390f35b34801561048e57600080fd5b506104a960048036038101906104a49190612b64565b611fdc565b6040516104b69190613312565b60405180910390f35b3480156104cb57600080fd5b506104e660048036038101906104e19190612b64565b612263565b6040516104fc9a99989796959493929190613334565b60405180910390f35b34801561051157600080fd5b5061052c600480360381019061052791906133e5565b61247c565b6040516105399190612fea565b60405180910390f35b34801561054e57600080fd5b5061056960048036038101906105649190613005565b612561565b005b600080600660008473ffffffffffffffffffffffffffffffffffffffff1673ffffffffffffffffffffffffffffffffffffffff1681526020019081526020016000209050600080600190505b82805490508110156105e2578086036105cf57600191505b80806105da90613483565b9150506105b7565b50809250505092915050565b60606008805480602002602001604051908101604052809291908181526020016000905b8282101561080857838290600052602060002090600502016040518060e001604052908160008201548152602001600182015481526020016002820160009054906101000a900460ff161515151581526020016002820160019054906101000a900460ff161515151581526020016002820160029054906101000a900473ffffffffffffffffffffffffffffffffffffffff1673ffffffffffffffffffffffffffffffffffffffff1673ffffffffffffffffffffffffffffffffffffffff1681526020016003820180546106e5906134fa565b80601f0160208091040260200160405190810160405280929190818152602001828054610711906134fa565b801561075e5780601f106107335761010080835404028352916020019161075e565b820191906000526020600020905b81548152906001019060200180831161074157829003601f168201915b50505050508152602001600482018054610777906134fa565b80601f01602080910402602001604051908101604052809291908181526020018280546107a3906134fa565b80156107f05780601f106107c5576101008083540402835291602001916107f0565b820191906000526020600020905b8154815290600101906020018083116107d357829003601f168201915b50505050508152505081526020019060010190610612565b50505050905090565b806000600660003373ffffffffffffffffffffffffffffffffffffffff1673ffffffffffffffffffffffffffffffffffffffff16815260200190815260200160002090506000805b82805490508110156108845780840361087157600191505b808061087c90613483565b915050610859565b50806108c5576040517f08c379a00000000000000000000000000000000000000000000000000000000081526004016108bc90613577565b60405180910390fd5b60006003600086815260200190815260200160002090508060060154421115610923576040517f08c379a000000000000000000000000000000000000000000000000000000000815260040161091a906135e3565b60405180910390fd5b60008160050154905080341461096e576040517f08c379a00000000000000000000000000000000000000000000000000000000081526004016109659061364f565b60405180910390fd5b600260009054906101000a900473ffffffffffffffffffffffffffffffffffffffff1673ffffffffffffffffffffffffffffffffffffffff1663d5a867b73433346040518463ffffffff1660e01b81526004016109cc92919061366f565b6000604051808303818588803b1580156109e557600080fd5b505af11580156109f9573d6000803e3d6000fd5b505050505062f7da0042610a0d9190613698565b8260090181905550857ffbf1458fbbddabb878de144276216e8ccda619cbac2d598e6ee37ff72173afb13383604051610a4792919061366f565b60405180910390a2505050505050565b60606000600454905060008167ffffffffffffffff811115610a7c57610a7b612de1565b5b604051908082528060200260200182016040528015610ab557816020015b610aa261273a565b815260200190600190039081610a9a5790505b5090506000600190505b82811015610d70576003600082815260200190815260200160002060405180610140016040529081600082015481526020016001820160009054906101000a900473ffffffffffffffffffffffffffffffffffffffff1673ffffffffffffffffffffffffffffffffffffffff1673ffffffffffffffffffffffffffffffffffffffff168152602001600282018054610b56906134fa565b80601f0160208091040260200160405190810160405280929190818152602001828054610b82906134fa565b8015610bcf5780601f10610ba457610100808354040283529160200191610bcf565b820191906000526020600020905b815481529060010190602001808311610bb257829003601f168201915b50505050508152602001600382018054610be8906134fa565b80601f0160208091040260200160405190810160405280929190818152602001828054610c14906134fa565b8015610c615780601f10610c3657610100808354040283529160200191610c61565b820191906000526020600020905b815481529060010190602001808311610c4457829003601f168201915b505050505081526020016004820154815260200160058201548152602001600682015481526020016007820160009054906101000a900460ff16151515158152602001600882018054610cb3906134fa565b80601f0160208091040260200160405190810160405280929190818152602001828054610cdf906134fa565b8015610d2c5780601f10610d0157610100808354040283529160200191610d2c565b820191906000526020600020905b815481529060010190602001808311610d0f57829003601f168201915b50505050508152602001600982015481525050828281518110610d5257610d516136cc565b5b60200260200101819052508080610d6890613483565b915050610abf565b50809250505090565b600160009054906101000a900473ffffffffffffffffffffffffffffffffffffffff1681565b6000610da96125e7565b6000610db686858561247c565b9050600160009054906101000a900473ffffffffffffffffffffffffffffffffffffffff1673ffffffffffffffffffffffffffffffffffffffff166323b872dd33600260009054906101000a900473ffffffffffffffffffffffffffffffffffffffff16846040518463ffffffff1660e01b8152600401610e39939291906136fb565b6020604051808303816000875af1158015610e58573d6000803e3d6000fd5b505050506040513d601f19601f82011682018060405250810190610e7c919061375e565b610ebb576040517f08c379a0000000000000000000000000000000000000000000000000000000008152600401610eb2906137d7565b60405180910390fd5b600060046000815480929190610ed090613483565b9190505590506040518061014001604052808281526020013373ffffffffffffffffffffffffffffffffffffffff16815260200189815260200187815260200188815260200183815260200186815260200160011515815260200185815260200162f7da0042610f409190613698565b815250600360008381526020019081526020016000206000820151816000015560208201518160010160006101000a81548173ffffffffffffffffffffffffffffffffffffffff021916908373ffffffffffffffffffffffffffffffffffffffff1602179055506040820151816002019081610fbc9190613999565b506060820151816003019081610fd29190613999565b506080820151816004015560a0820151816005015560c0820151816006015560e08201518160070160006101000a81548160ff0219169083151502179055506101008201518160080190816110279190613999565b506101208201518160090155905050807fdd4dcb2ef94f82921d5c77e9cf4e5c8dd423fb1de1310a243115b95316f257773389858960405161106c9493929190613a6b565b60405180910390a2809250505095945050505050565b61108a6125e7565b611094600061266e565b565b60606000600660008473ffffffffffffffffffffffffffffffffffffffff1673ffffffffffffffffffffffffffffffffffffffff16815260200190815260200160002080549050905060008167ffffffffffffffff8111156110fb576110fa612de1565b5b60405190808252806020026020018201604052801561113457816020015b61112161273a565b8152602001906001900390816111195790505b5090506000600190505b828110156113ef576003600082815260200190815260200160002060405180610140016040529081600082015481526020016001820160009054906101000a900473ffffffffffffffffffffffffffffffffffffffff1673ffffffffffffffffffffffffffffffffffffffff1673ffffffffffffffffffffffffffffffffffffffff1681526020016002820180546111d5906134fa565b80601f0160208091040260200160405190810160405280929190818152602001828054611201906134fa565b801561124e5780601f106112235761010080835404028352916020019161124e565b820191906000526020600020905b81548152906001019060200180831161123157829003601f168201915b50505050508152602001600382018054611267906134fa565b80601f0160208091040260200160405190810160405280929190818152602001828054611293906134fa565b80156112e05780601f106112b5576101008083540402835291602001916112e0565b820191906000526020600020905b8154815290600101906020018083116112c357829003601f168201915b505050505081526020016004820154815260200160058201548152602001600682015481526020016007820160009054906101000a900460ff16151515158152602001600882018054611332906134fa565b80601f016020809104026020016040519081016040528092919081815260200182805461135e906134fa565b80156113ab5780601f10611380576101008083540402835291602001916113ab565b820191906000526020600020905b81548152906001019060200180831161138e57829003601f168201915b505050505081526020016009820154815250508282815181106113d1576113d06136cc565b5b602002602001018190525080806113e790613483565b91505061113e565b508092505050919050565b60008060009054906101000a900473ffffffffffffffffffffffffffffffffffffffff16905090565b60076020528060005260406000206000915090508060000154908060010154908060020160009054906101000a900460ff16908060020160019054906101000a900460ff16908060020160029054906101000a900473ffffffffffffffffffffffffffffffffffffffff169080600301805461149e906134fa565b80601f01602080910402602001604051908101604052809291908181526020018280546114ca906134fa565b80156115175780601f106114ec57610100808354040283529160200191611517565b820191906000526020600020905b8154815290600101906020018083116114fa57829003601f168201915b50505050509080600401805461152c906134fa565b80601f0160208091040260200160405190810160405280929190818152602001828054611558906134fa565b80156115a55780601f1061157a576101008083540402835291602001916115a5565b820191906000526020600020905b81548152906001019060200180831161158857829003601f168201915b5050505050905087565b60055481565b600260009054906101000a900473ffffffffffffffffffffffffffffffffffffffff1681565b600660205281600052604060002081815481106115f757600080fd5b90600052602060002001600091509150505481565b6008818154811061161c57600080fd5b90600052602060002090600502016000915090508060000154908060010154908060020160009054906101000a900460ff16908060020160019054906101000a900460ff16908060020160029054906101000a900473ffffffffffffffffffffffffffffffffffffffff1690806003018054611697906134fa565b80601f01602080910402602001604051908101604052809291908181526020018280546116c3906134fa565b80156117105780601f106116e557610100808354040283529160200191611710565b820191906000526020600020905b8154815290600101906020018083116116f357829003601f168201915b505050505090806004018054611725906134fa565b80601f0160208091040260200160405190810160405280929190818152602001828054611751906134fa565b801561179e5780601f106117735761010080835404028352916020019161179e565b820191906000526020600020905b81548152906001019060200180831161178157829003601f168201915b5050505050905087565b6040518060e0016040528060055481526020018481526020016000151581526020016000151581526020013373ffffffffffffffffffffffffffffffffffffffff16815260200183815260200182815250600760006005548152602001908152602001600020600082015181600001556020820151816001015560408201518160020160006101000a81548160ff02191690831515021790555060608201518160020160016101000a81548160ff02191690831515021790555060808201518160020160026101000a81548173ffffffffffffffffffffffffffffffffffffffff021916908373ffffffffffffffffffffffffffffffffffffffff16021790555060a08201518160030190816118be9190613999565b5060c08201518160040190816118d49190613999565b509050506008600760006005548152602001908152602001600020908060018154018082558091505060019003906000526020600020906005020160009091909190915060008201548160000155600182015481600101556002820160009054906101000a900460ff168160020160006101000a81548160ff0219169083151502179055506002820160019054906101000a900460ff168160020160016101000a81548160ff0219169083151502179055506002820160029054906101000a900473ffffffffffffffffffffffffffffffffffffffff168160020160026101000a81548173ffffffffffffffffffffffffffffffffffffffff021916908373ffffffffffffffffffffffffffffffffffffffff16021790555060038201816003019081611a019190613ac6565b5060048201816004019081611a169190613ac6565b50505060056000815480929190611a2c90613483565b9190505550827f49df2fa74fcb74a57b6ade05a5b2b557c008ae98b667f70273671790d82ca1a23383604051611a63929190613bae565b60405180910390a2505050565b611a786125e7565b600060076000838152602001908152602001600020905060008160010154905060006003600083815260200190815260200160002090506000611abb833361056b565b90506000851015611b01576040517f08c379a0000000000000000000000000000000000000000000000000000000008152600401611af890613c2a565b60405180910390fd5b600880549050851115611b49576040517f08c379a0000000000000000000000000000000000000000000000000000000008152600401611b4090613c2a565b60405180910390fd5b80611b89576040517f08c379a0000000000000000000000000000000000000000000000000000000008152600401611b8090613cbc565b60405180910390fd5b600260009054906101000a900473ffffffffffffffffffffffffffffffffffffffff1673ffffffffffffffffffffffffffffffffffffffff166350802e3f8560020160029054906101000a900473ffffffffffffffffffffffffffffffffffffffff1684600401546040518363ffffffff1660e01b8152600401611c0e92919061366f565b600060405180830381600087803b158015611c2857600080fd5b505af1925050508015611c39575060015b611c78576040517f08c379a0000000000000000000000000000000000000000000000000000000008152600401611c6f90613d28565b60405180910390fd5b60018460020160006101000a81548160ff02191690831515021790555060018460020160016101000a81548160ff021916908315150217905550600660003373ffffffffffffffffffffffffffffffffffffffff1673ffffffffffffffffffffffffffffffffffffffff1681526020019081526020016000208381548110611d0357611d026136cc565b5b906000526020600020016000905560088581548110611d2557611d246136cc565b5b906000526020600020906005020160008082016000905560018201600090556002820160006101000a81549060ff02191690556002820160016101000a81549060ff02191690556002820160026101000a81549073ffffffffffffffffffffffffffffffffffffffff0219169055600382016000611da391906127a5565b600482016000611db391906127a5565b5050827f5f2564c1ad353e58b81e7bd6cd0e6b1a3f52f46ab4c59c2cadfbaacc4b2e5716338460040154604051611deb92919061366f565b60405180910390a25050505050565b60006003600083815260200190815260200160002090508060060154421115611e58576040517f08c379a0000000000000000000000000000000000000000000000000000000008152600401611e4f906135e3565b60405180910390fd5b600081600501549050803414611ea3576040517f08c379a0000000000000000000000000000000000000000000000000000000008152600401611e9a9061364f565b60405180910390fd5b600260009054906101000a900473ffffffffffffffffffffffffffffffffffffffff1673ffffffffffffffffffffffffffffffffffffffff1663d5a867b73433346040518463ffffffff1660e01b8152600401611f0192919061366f565b6000604051808303818588803b158015611f1a57600080fd5b505af1158015611f2e573d6000803e3d6000fd5b5050505050600660003373ffffffffffffffffffffffffffffffffffffffff1673ffffffffffffffffffffffffffffffffffffffff168152602001908152602001600020839080600181540180825580915050600190039060005260206000200160009091909190915055827f60d59b58b916d11d0ac52c397e342e25ae6dc5da412115d469d304bf4dd8640433604051611fc99190613041565b60405180910390a2505050565b60045481565b611fe461273a565b6003600083815260200190815260200160002060405180610140016040529081600082015481526020016001820160009054906101000a900473ffffffffffffffffffffffffffffffffffffffff1673ffffffffffffffffffffffffffffffffffffffff1673ffffffffffffffffffffffffffffffffffffffff168152602001600282018054612073906134fa565b80601f016020809104026020016040519081016040528092919081815260200182805461209f906134fa565b80156120ec5780601f106120c1576101008083540402835291602001916120ec565b820191906000526020600020905b8154815290600101906020018083116120cf57829003601f168201915b50505050508152602001600382018054612105906134fa565b80601f0160208091040260200160405190810160405280929190818152602001828054612131906134fa565b801561217e5780601f106121535761010080835404028352916020019161217e565b820191906000526020600020905b81548152906001019060200180831161216157829003601f168201915b505050505081526020016004820154815260200160058201548152602001600682015481526020016007820160009054906101000a900460ff161515151581526020016008820180546121d0906134fa565b80601f01602080910402602001604051908101604052809291908181526020018280546121fc906134fa565b80156122495780601f1061221e57610100808354040283529160200191612249565b820191906000526020600020905b81548152906001019060200180831161222c57829003601f168201915b505050505081526020016009820154815250509050919050565b60036020528060005260406000206000915090508060000154908060010160009054906101000a900473ffffffffffffffffffffffffffffffffffffffff16908060020180546122b2906134fa565b80601f01602080910402602001604051908101604052809291908181526020018280546122de906134fa565b801561232b5780601f106123005761010080835404028352916020019161232b565b820191906000526020600020905b81548152906001019060200180831161230e57829003601f168201915b505050505090806003018054612340906134fa565b80601f016020809104026020016040519081016040528092919081815260200182805461236c906134fa565b80156123b95780601f1061238e576101008083540402835291602001916123b9565b820191906000526020600020905b81548152906001019060200180831161239c57829003601f168201915b5050505050908060040154908060050154908060060154908060070160009054906101000a900460ff16908060080180546123f3906134fa565b80601f016020809104026020016040519081016040528092919081815260200182805461241f906134fa565b801561246c5780601f106124415761010080835404028352916020019161246c565b820191906000526020600020905b81548152906001019060200180831161244f57829003601f168201915b505050505090806009015490508a565b600080600190506040518060400160405280600d81526020017f65786368616e67655f6861636b00000000000000000000000000000000000000815250805190602001208380519060200120036124d65760029050612526565b6040518060400160405280600981526020017f646566695f7269736b00000000000000000000000000000000000000000000008152508051906020012083805190602001200361252557600390505b5b63bbf81e0042856125379190613d48565b82876125439190613d7c565b61254d9190613d7c565b6125579190613ded565b9150509392505050565b6125696125e7565b600073ffffffffffffffffffffffffffffffffffffffff168173ffffffffffffffffffffffffffffffffffffffff16036125db5760006040517f1e4fbdf70000000000000000000000000000000000000000000000000000000081526004016125d29190613041565b60405180910390fd5b6125e48161266e565b50565b6125ef612732565b73ffffffffffffffffffffffffffffffffffffffff1661260d6113fa565b73ffffffffffffffffffffffffffffffffffffffff161461266c57612630612732565b6040517f118cdaa70000000000000000000000000000000000000000000000000000000081526004016126639190613041565b60405180910390fd5b565b60008060009054906101000a900473ffffffffffffffffffffffffffffffffffffffff169050816000806101000a81548173ffffffffffffffffffffffffffffffffffffffff021916908373ffffffffffffffffffffffffffffffffffffffff1602179055508173ffffffffffffffffffffffffffffffffffffffff168173ffffffffffffffffffffffffffffffffffffffff167f8be0079c531659141344cd1fd0a4f28419497f9722a3daafe3b4186f6b6457e060405160405180910390a35050565b600033905090565b60405180610140016040528060008152602001600073ffffffffffffffffffffffffffffffffffffffff168152602001606081526020016060815260200160008152602001600081526020016000815260200160001515815260200160608152602001600081525090565b5080546127b1906134fa565b6000825580601f106127c357506127e2565b601f0160209004906000526020600020908101906127e191906127e5565b5b50565b5b808211156127fe5760008160009055506001016127e6565b5090565b6000604051905090565b600080fd5b600080fd5b6000819050919050565b61282981612816565b811461283457600080fd5b50565b60008135905061284681612820565b92915050565b600073ffffffffffffffffffffffffffffffffffffffff82169050919050565b60006128778261284c565b9050919050565b6128878161286c565b811461289257600080fd5b50565b6000813590506128a48161287e565b92915050565b600080604083850312156128c1576128c061280c565b5b60006128cf85828601612837565b92505060206128e085828601612895565b9150509250929050565b60008115159050919050565b6128ff816128ea565b82525050565b600060208201905061291a60008301846128f6565b92915050565b600081519050919050565b600082825260208201905092915050565b6000819050602082019050919050565b61295581612816565b82525050565b612964816128ea565b82525050565b6129738161286c565b82525050565b600081519050919050565b600082825260208201905092915050565b60005b838110156129b3578082015181840152602081019050612998565b60008484015250505050565b6000601f19601f8301169050919050565b60006129db82612979565b6129e58185612984565b93506129f5818560208601612995565b6129fe816129bf565b840191505092915050565b600060e083016000830151612a21600086018261294c565b506020830151612a34602086018261294c565b506040830151612a47604086018261295b565b506060830151612a5a606086018261295b565b506080830151612a6d608086018261296a565b5060a083015184820360a0860152612a8582826129d0565b91505060c083015184820360c0860152612a9f82826129d0565b9150508091505092915050565b6000612ab88383612a09565b905092915050565b6000602082019050919050565b6000612ad882612920565b612ae2818561292b565b935083602082028501612af48561293c565b8060005b85811015612b305784840389528151612b118582612aac565b9450612b1c83612ac0565b925060208a01995050600181019050612af8565b50829750879550505050505092915050565b60006020820190508181036000830152612b5c8184612acd565b905092915050565b600060208284031215612b7a57612b7961280c565b5b6000612b8884828501612837565b91505092915050565b600081519050919050565b600082825260208201905092915050565b6000819050602082019050919050565b600061014083016000830151612bd6600086018261294c565b506020830151612be9602086018261296a565b5060408301518482036040860152612c0182826129d0565b91505060608301518482036060860152612c1b82826129d0565b9150506080830151612c30608086018261294c565b5060a0830151612c4360a086018261294c565b5060c0830151612c5660c086018261294c565b5060e0830151612c6960e086018261295b565b50610100830151848203610100860152612c8382826129d0565b915050610120830151612c9a61012086018261294c565b508091505092915050565b6000612cb18383612bbd565b905092915050565b6000602082019050919050565b6000612cd182612b91565b612cdb8185612b9c565b935083602082028501612ced85612bad565b8060005b85811015612d295784840389528151612d0a8582612ca5565b9450612d1583612cb9565b925060208a01995050600181019050612cf1565b50829750879550505050505092915050565b60006020820190508181036000830152612d558184612cc6565b905092915050565b6000819050919050565b6000612d82612d7d612d788461284c565b612d5d565b61284c565b9050919050565b6000612d9482612d67565b9050919050565b6000612da682612d89565b9050919050565b612db681612d9b565b82525050565b6000602082019050612dd16000830184612dad565b92915050565b600080fd5b600080fd5b7f4e487b7100000000000000000000000000000000000000000000000000000000600052604160045260246000fd5b612e19826129bf565b810181811067ffffffffffffffff82111715612e3857612e37612de1565b5b80604052505050565b6000612e4b612802565b9050612e578282612e10565b919050565b600067ffffffffffffffff821115612e7757612e76612de1565b5b612e80826129bf565b9050602081019050919050565b82818337600083830152505050565b6000612eaf612eaa84612e5c565b612e41565b905082815260208101848484011115612ecb57612eca612ddc565b5b612ed6848285612e8d565b509392505050565b600082601f830112612ef357612ef2612dd7565b5b8135612f03848260208601612e9c565b91505092915050565b600080600080600060a08688031215612f2857612f2761280c565b5b600086013567ffffffffffffffff811115612f4657612f45612811565b5b612f5288828901612ede565b9550506020612f6388828901612837565b945050604086013567ffffffffffffffff811115612f8457612f83612811565b5b612f9088828901612ede565b9350506060612fa188828901612837565b925050608086013567ffffffffffffffff811115612fc257612fc1612811565b5b612fce88828901612ede565b9150509295509295909350565b612fe481612816565b82525050565b6000602082019050612fff6000830184612fdb565b92915050565b60006020828403121561301b5761301a61280c565b5b600061302984828501612895565b91505092915050565b61303b8161286c565b82525050565b60006020820190506130566000830184613032565b92915050565b600082825260208201905092915050565b600061307882612979565b613082818561305c565b9350613092818560208601612995565b61309b816129bf565b840191505092915050565b600060e0820190506130bb600083018a612fdb565b6130c86020830189612fdb565b6130d560408301886128f6565b6130e260608301876128f6565b6130ef6080830186613032565b81810360a0830152613101818561306d565b905081810360c0830152613115818461306d565b905098975050505050505050565b600061312e82612d89565b9050919050565b61313e81613123565b82525050565b60006020820190506131596000830184613135565b92915050565b600080604083850312156131765761317561280c565b5b600061318485828601612895565b925050602061319585828601612837565b9150509250929050565b6000806000606084860312156131b8576131b761280c565b5b60006131c686828701612837565b935050602084013567ffffffffffffffff8111156131e7576131e6612811565b5b6131f386828701612ede565b925050604084013567ffffffffffffffff81111561321457613213612811565b5b61322086828701612ede565b9150509250925092565b600061014083016000830151613243600086018261294c565b506020830151613256602086018261296a565b506040830151848203604086015261326e82826129d0565b9150506060830151848203606086015261328882826129d0565b915050608083015161329d608086018261294c565b5060a08301516132b060a086018261294c565b5060c08301516132c360c086018261294c565b5060e08301516132d660e086018261295b565b506101008301518482036101008601526132f082826129d0565b91505061012083015161330761012086018261294c565b508091505092915050565b6000602082019050818103600083015261332c818461322a565b905092915050565b60006101408201905061334a600083018d612fdb565b613357602083018c613032565b8181036040830152613369818b61306d565b9050818103606083015261337d818a61306d565b905061338c6080830189612fdb565b61339960a0830188612fdb565b6133a660c0830187612fdb565b6133b360e08301866128f6565b8181036101008301526133c6818561306d565b90506133d6610120830184612fdb565b9b9a5050505050505050505050565b6000806000606084860312156133fe576133fd61280c565b5b600061340c86828701612837565b935050602061341d86828701612837565b925050604084013567ffffffffffffffff81111561343e5761343d612811565b5b61344a86828701612ede565b9150509250925092565b7f4e487b7100000000000000000000000000000000000000000000000000000000600052601160045260246000fd5b600061348e82612816565b91507fffffffffffffffffffffffffffffffffffffffffffffffffffffffffffffffff82036134c0576134bf613454565b5b600182019050919050565b7f4e487b7100000000000000000000000000000000000000000000000000000000600052602260045260246000fd5b6000600282049050600182168061351257607f821691505b602082108103613525576135246134cb565b5b50919050565b7f5573657220646f6573206e6f742070757263686173656420706f6c6963790000600082015250565b6000613561601e8361305c565b915061356c8261352b565b602082019050919050565b6000602082019050818103600083015261359081613554565b9050919050565b7f506f6c6963792065787069726564000000000000000000000000000000000000600082015250565b60006135cd600e8361305c565b91506135d882613597565b602082019050919050565b600060208201905081810360008301526135fc816135c0565b9050919050565b7f496e73756666696369656e742066756e64732073656e74000000000000000000600082015250565b600061363960178361305c565b915061364482613603565b602082019050919050565b600060208201905081810360008301526136688161362c565b9050919050565b60006040820190506136846000830185613032565b6136916020830184612fdb565b9392505050565b60006136a382612816565b91506136ae83612816565b92508282019050808211156136c6576136c5613454565b5b92915050565b7f4e487b7100000000000000000000000000000000000000000000000000000000600052603260045260246000fd5b60006060820190506137106000830186613032565b61371d6020830185613032565b61372a6040830184612fdb565b949350505050565b61373b816128ea565b811461374657600080fd5b50565b60008151905061375881613732565b92915050565b6000602082840312156137745761377361280c565b5b600061378284828501613749565b91505092915050565b7f5072656d69756d207061796d656e74206661696c656400000000000000000000600082015250565b60006137c160168361305c565b91506137cc8261378b565b602082019050919050565b600060208201905081810360008301526137f0816137b4565b9050919050565b60008190508160005260206000209050919050565b60006020601f8301049050919050565b600082821b905092915050565b6000600883026138597fffffffffffffffffffffffffffffffffffffffffffffffffffffffffffffffff8261381c565b613863868361381c565b95508019841693508086168417925050509392505050565b600061389661389161388c84612816565b612d5d565b612816565b9050919050565b6000819050919050565b6138b08361387b565b6138c46138bc8261389d565b848454613829565b825550505050565b600090565b6138d96138cc565b6138e48184846138a7565b505050565b5b81811015613908576138fd6000826138d1565b6001810190506138ea565b5050565b601f82111561394d5761391e816137f7565b6139278461380c565b81016020851015613936578190505b61394a6139428561380c565b8301826138e9565b50505b505050565b600082821c905092915050565b600061397060001984600802613952565b1980831691505092915050565b6000613989838361395f565b9150826002028217905092915050565b6139a282612979565b67ffffffffffffffff8111156139bb576139ba612de1565b5b6139c582546134fa565b6139d082828561390c565b600060209050601f831160018114613a0357600084156139f1578287015190505b6139fb858261397d565b865550613a63565b601f198416613a11866137f7565b60005b82811015613a3957848901518255600182019150602085019450602081019050613a14565b86831015613a565784890151613a52601f89168261395f565b8355505b6001600288020188555050505b505050505050565b6000608082019050613a806000830187613032565b613a8d6020830186612fdb565b613a9a6040830185612fdb565b613aa76060830184612fdb565b95945050505050565b600081549050613abf816134fa565b9050919050565b818103613ad4575050613bac565b613add82613ab0565b67ffffffffffffffff811115613af657613af5612de1565b5b613b0082546134fa565b613b0b82828561390c565b6000601f831160018114613b3a5760008415613b28578287015490505b613b32858261397d565b865550613ba5565b601f198416613b48876137f7565b9650613b53866137f7565b60005b82811015613b7b57848901548255600182019150600185019450602081019050613b56565b86831015613b985784890154613b94601f89168261395f565b8355505b6001600288020188555050505b5050505050505b565b6000604082019050613bc36000830185613032565b8181036020830152613bd5818461306d565b90509392505050565b7f436c61696d20646f6573206e6f74206578697374000000000000000000000000600082015250565b6000613c1460148361305c565b9150613c1f82613bde565b602082019050919050565b60006020820190508181036000830152613c4381613c07565b9050919050565b7f5573657220646f65736e2774207075726368617365642074686520706f6c696360008201527f7900000000000000000000000000000000000000000000000000000000000000602082015250565b6000613ca660218361305c565b9150613cb182613c4a565b604082019050919050565b60006020820190508181036000830152613cd581613c99565b9050919050565b7f436c61696d20506179204661696c656400000000000000000000000000000000600082015250565b6000613d1260108361305c565b9150613d1d82613cdc565b602082019050919050565b60006020820190508181036000830152613d4181613d05565b9050919050565b6000613d5382612816565b9150613d5e83612816565b9250828203905081811115613d7657613d75613454565b5b92915050565b6000613d8782612816565b9150613d9283612816565b9250828202613da081612816565b91508282048414831517613db757613db6613454565b5b5092915050565b7f4e487b7100000000000000000000000000000000000000000000000000000000600052601260045260246000fd5b6000613df882612816565b9150613e0383612816565b925082613e1357613e12613dbe565b5b82820490509291505056fea2646970667358221220f7c0d44e0fd21464da039559c137f664a894e1a06c1de9b45de05d45802dc4c664736f6c63430008150033",
  "linkReferences": {},
  "deployedLinkReferences": {}
}